{
  "contractName": "MintCard",
  "abi": [
    {
      "anonymous": false,
      "inputs": [
        {
          "indexed": false,
          "internalType": "uint32",
          "name": "cardId",
          "type": "uint32"
        },
        {
          "indexed": false,
          "internalType": "string",
          "name": "avatar",
          "type": "string"
        },
        {
          "indexed": false,
          "internalType": "uint8",
          "name": "power",
          "type": "uint8"
        },
        {
          "indexed": false,
          "internalType": "string",
          "name": "symbol",
          "type": "string"
        },
        {
          "indexed": false,
          "internalType": "string",
          "name": "rarity",
          "type": "string"
        },
        {
          "indexed": false,
          "internalType": "uint32",
          "name": "cardPrice",
          "type": "uint32"
        },
        {
          "indexed": false,
          "internalType": "address",
          "name": "card_owner",
          "type": "address"
        }
      ],
      "name": "newCardMinted",
      "type": "event"
    },
    {
      "inputs": [
        {
          "internalType": "string",
          "name": "_avatar",
          "type": "string"
        },
        {
          "internalType": "uint8",
          "name": "_power",
          "type": "uint8"
        },
        {
          "internalType": "string",
          "name": "_symbol",
          "type": "string"
        },
        {
          "internalType": "string",
          "name": "_rarity",
          "type": "string"
        }
      ],
      "name": "mintCard",
      "outputs": [
        {
          "internalType": "uint8",
          "name": "",
          "type": "uint8"
        }
      ],
      "stateMutability": "nonpayable",
      "type": "function"
    }
  ],
  "bytecode": "0x608060405260008060006101000a81548160ff021916908360ff16021790555034801561002b57600080fd5b50610c848061003b6000396000f3fe608060405234801561001057600080fd5b506004361061002b5760003560e01c8063b779df6714610030575b600080fd5b61004a600480360381019061004591906106cf565b610060565b6040516100579190610970565b60405180910390f35b6000803373ffffffffffffffffffffffffffffffffffffffff1631116100bb576040517f08c379a00000000000000000000000000000000000000000000000000000000081526004016100b2906108cc565b60405180910390fd5b600060059054906101000a900473ffffffffffffffffffffffffffffffffffffffff1673ffffffffffffffffffffffffffffffffffffffff163373ffffffffffffffffffffffffffffffffffffffff161461014b576040517f08c379a0000000000000000000000000000000000000000000000000000000008152600401610142906108ac565b60405180910390fd5b6001600060019054906101000a900463ffffffff1661016a9190610a5e565b600060016101000a81548163ffffffff021916908363ffffffff1602179055506001600060019054906101000a900463ffffffff1690806001815401808255809150506001900390600052602060002090600891828204019190066004029091909190916101000a81548163ffffffff021916908363ffffffff160217905550600180805490506101fb9190610a98565b600260008060019054906101000a900463ffffffff1663ffffffff1663ffffffff16815260200190815260200160002081905550600060019054906101000a900463ffffffff16600360008060019054906101000a900463ffffffff1663ffffffff1663ffffffff16815260200190815260200160002060000160156101000a81548163ffffffff021916908363ffffffff16021790555033600360008060019054906101000a900463ffffffff1663ffffffff1663ffffffff16815260200190815260200160002060000160006101000a81548173ffffffffffffffffffffffffffffffffffffffff021916908373ffffffffffffffffffffffffffffffffffffffff16021790555084600360008060019054906101000a900463ffffffff1663ffffffff1663ffffffff168152602001908152602001600020600101908051906020019061034c9291906105af565b5083600360008060019054906101000a900463ffffffff1663ffffffff1663ffffffff16815260200190815260200160002060000160146101000a81548160ff021916908360ff16021790555082600360008060019054906101000a900463ffffffff1663ffffffff1663ffffffff16815260200190815260200160002060020190805190602001906103e09291906105af565b5081600360008060019054906101000a900463ffffffff1663ffffffff1663ffffffff16815260200190815260200160002060030190805190602001906104289291906105af565b506064600360008060019054906101000a900463ffffffff1663ffffffff1663ffffffff16815260200190815260200160002060000160196101000a81548163ffffffff021916908363ffffffff1602179055506001600460003373ffffffffffffffffffffffffffffffffffffffff1673ffffffffffffffffffffffffffffffffffffffff168152602001908152602001600020546104c89190610a08565b600460003373ffffffffffffffffffffffffffffffffffffffff1673ffffffffffffffffffffffffffffffffffffffff168152602001908152602001600020819055507f1468e04c2db3369ea111a40f06be37e52539b061dddba01e1439bdecd424bae3600060019054906101000a900463ffffffff1686868686600360008060019054906101000a900463ffffffff1663ffffffff1663ffffffff16815260200190815260200160002060000160199054906101000a900463ffffffff163360405161059b97969594939291906108ec565b60405180910390a160009050949350505050565b8280546105bb90610b67565b90600052602060002090601f0160209004810192826105dd5760008555610624565b82601f106105f657805160ff1916838001178555610624565b82800160010185558215610624579182015b82811115610623578251825591602001919060010190610608565b5b5090506106319190610635565b5090565b5b8082111561064e576000816000905550600101610636565b5090565b6000610665610660846109bc565b61098b565b90508281526020810184848401111561067d57600080fd5b610688848285610b25565b509392505050565b600082601f8301126106a157600080fd5b81356106b1848260208601610652565b91505092915050565b6000813590506106c981610c37565b92915050565b600080600080608085870312156106e557600080fd5b600085013567ffffffffffffffff8111156106ff57600080fd5b61070b87828801610690565b945050602061071c878288016106ba565b935050604085013567ffffffffffffffff81111561073957600080fd5b61074587828801610690565b925050606085013567ffffffffffffffff81111561076257600080fd5b61076e87828801610690565b91505092959194509250565b61078381610acc565b82525050565b6000610794826109ec565b61079e81856109f7565b93506107ae818560208601610b34565b6107b781610c26565b840191505092915050565b60006107cf6022836109f7565b91507f4f6e6c7920636f6e74726163742061646d696e2063616e206d696e742063617260008301527f64730000000000000000000000000000000000000000000000000000000000006020830152604082019050919050565b6000610835602d836109f7565b91507f4275796572206163636f756e742068617320696e7375666669656369656e742060008301527f45746865722062616c616e6365000000000000000000000000000000000000006020830152604082019050919050565b61089781610b08565b82525050565b6108a681610b18565b82525050565b600060208201905081810360008301526108c5816107c2565b9050919050565b600060208201905081810360008301526108e581610828565b9050919050565b600060e082019050610901600083018a61088e565b81810360208301526109138189610789565b9050610922604083018861089d565b81810360608301526109348187610789565b905081810360808301526109488186610789565b905061095760a083018561088e565b61096460c083018461077a565b98975050505050505050565b6000602082019050610985600083018461089d565b92915050565b6000604051905081810181811067ffffffffffffffff821117156109b2576109b1610bf7565b5b8060405250919050565b600067ffffffffffffffff8211156109d7576109d6610bf7565b5b601f19601f8301169050602081019050919050565b600081519050919050565b600082825260208201905092915050565b6000610a1382610afe565b9150610a1e83610afe565b9250827fffffffffffffffffffffffffffffffffffffffffffffffffffffffffffffffff03821115610a5357610a52610b99565b5b828201905092915050565b6000610a6982610b08565b9150610a7483610b08565b92508263ffffffff03821115610a8d57610a8c610b99565b5b828201905092915050565b6000610aa382610afe565b9150610aae83610afe565b925082821015610ac157610ac0610b99565b5b828203905092915050565b6000610ad782610ade565b9050919050565b600073ffffffffffffffffffffffffffffffffffffffff82169050919050565b6000819050919050565b600063ffffffff82169050919050565b600060ff82169050919050565b82818337600083830152505050565b60005b83811015610b52578082015181840152602081019050610b37565b83811115610b61576000848401525b50505050565b60006002820490506001821680610b7f57607f821691505b60208210811415610b9357610b92610bc8565b5b50919050565b7f4e487b7100000000000000000000000000000000000000000000000000000000600052601160045260246000fd5b7f4e487b7100000000000000000000000000000000000000000000000000000000600052602260045260246000fd5b7f4e487b7100000000000000000000000000000000000000000000000000000000600052604160045260246000fd5b6000601f19601f8301169050919050565b610c4081610b18565b8114610c4b57600080fd5b5056fea264697066735822122074bc944277b61a7b6f9c90588984bb581fcff4ec4697420078e9113b886e2ba664736f6c63430008000033",
  "immutableReferences": {},
  "source": "pragma solidity ^0.8.0;\n\n/**\n * @title MintCard\n * @dev Mint Pokemon cards\n */\n \nimport './Card.sol';\n\ncontract MintCard is Card{\n    \n    event newCardMinted(uint32 cardId, string avatar, uint8 power, string symbol, string rarity, uint32 cardPrice, address card_owner);\n    \n    /**\n     * @dev function to confirm if gas fees is paid to Dbilia and trigger mintWithUSD\n     * @param _avatar - input parameter\n     * @param _power  - input parameter\n     * @param _symbol - input parameter\n     * @param _rarity - input parameter\n     */\n    \n     \n     function mintCard(string memory _avatar, uint8 _power, string memory _symbol, string memory _rarity) public returns(uint8){\n        require(msg.sender.balance>0, \"Buyer account has insuffiecient Ether balance\");\n        require(msg.sender==admin, \"Only contract admin can mint cards\");\n        cardId=cardId+1;\n        cardIds.push(cardId);\n        _cardIndex[cardId] = cardIds.length-1;\n        _card[cardId].card_Id = cardId;\n        _card[cardId].owner= payable (msg.sender);\n        _card[cardId].avatar= _avatar;\n        _card[cardId].power= _power;\n        _card[cardId].symbol= _symbol;\n        _card[cardId].rarity= _rarity;\n        _card[cardId].cardPriceInWei=100;                                               //Price of card is initially set at 100 wei on minting   \n        _balances[msg.sender]= _balances[msg.sender]+1;\n        emit newCardMinted(cardId, _avatar, _power, _symbol, _rarity, _card[cardId].cardPriceInWei, msg.sender);\n        return 0;\n    }\n}",
  "sourcePath": "/Users/rogueguy/Downloads/PK/PokemonToken/PokemonToken/contracts/MintCard.sol",
  "compiler": {
    "name": "solc",
    "version": "0.8.0+commit.c7dfd78e.Emscripten.clang"
  },
  "schemaVersion": "3.4.1",
  "updatedAt": "2021-06-26T17:20:59.346Z",
  "devdoc": {
    "kind": "dev",
    "methods": {
      "mintCard(string,uint8,string,string)": {
        "details": "function to confirm if gas fees is paid to Dbilia and trigger mintWithUSD",
        "params": {
          "_avatar": "- input parameter",
          "_power": "- input parameter",
          "_rarity": "- input parameter",
          "_symbol": "- input parameter"
        }
      }
    },
    "version": 1
  },
  "userdoc": {
    "kind": "user",
    "methods": {},
    "version": 1
  }
}