{
  "contractName": "PokemonToken",
  "abi": [
    {
      "inputs": [],
      "stateMutability": "payable",
      "type": "constructor",
      "payable": true
    },
    {
      "anonymous": false,
      "inputs": [
        {
          "indexed": false,
          "internalType": "uint32",
          "name": "cardId",
          "type": "uint32"
        },
        {
          "indexed": false,
          "internalType": "uint32",
          "name": "newPrice",
          "type": "uint32"
        },
        {
          "indexed": false,
          "internalType": "address",
          "name": "priceSetBy",
          "type": "address"
        }
      ],
      "name": "cardPriceSet",
      "type": "event"
    },
    {
      "anonymous": false,
      "inputs": [
        {
          "indexed": false,
          "internalType": "uint32",
          "name": "cardPurchasedId",
          "type": "uint32"
        },
        {
          "indexed": false,
          "internalType": "address",
          "name": "newOwner",
          "type": "address"
        },
        {
          "indexed": false,
          "internalType": "uint32",
          "name": "purchasePrice",
          "type": "uint32"
        }
      ],
      "name": "cardPurchased",
      "type": "event"
    },
    {
      "anonymous": false,
      "inputs": [
        {
          "indexed": false,
          "internalType": "uint32",
          "name": "cardSoldId",
          "type": "uint32"
        },
        {
          "indexed": false,
          "internalType": "address",
          "name": "newOwner",
          "type": "address"
        },
        {
          "indexed": false,
          "internalType": "uint32",
          "name": "sellPrice",
          "type": "uint32"
        }
      ],
      "name": "cardSold",
      "type": "event"
    },
    {
      "anonymous": false,
      "inputs": [
        {
          "indexed": false,
          "internalType": "uint32",
          "name": "senderCardId",
          "type": "uint32"
        },
        {
          "indexed": false,
          "internalType": "address",
          "name": "senderCardIdNewOwner",
          "type": "address"
        },
        {
          "indexed": false,
          "internalType": "uint32",
          "name": "receiverCardId",
          "type": "uint32"
        },
        {
          "indexed": false,
          "internalType": "address",
          "name": "receiverCardIdNewOwner",
          "type": "address"
        }
      ],
      "name": "cardTradedSuccessfully",
      "type": "event"
    },
    {
      "anonymous": false,
      "inputs": [
        {
          "indexed": false,
          "internalType": "uint32",
          "name": "cardTransferredId",
          "type": "uint32"
        },
        {
          "indexed": false,
          "internalType": "address",
          "name": "newOwner",
          "type": "address"
        }
      ],
      "name": "cardTransferred",
      "type": "event"
    },
    {
      "anonymous": false,
      "inputs": [
        {
          "indexed": false,
          "internalType": "uint32",
          "name": "cardId",
          "type": "uint32"
        },
        {
          "indexed": false,
          "internalType": "string",
          "name": "avatar",
          "type": "string"
        },
        {
          "indexed": false,
          "internalType": "uint8",
          "name": "power",
          "type": "uint8"
        },
        {
          "indexed": false,
          "internalType": "string",
          "name": "symbol",
          "type": "string"
        },
        {
          "indexed": false,
          "internalType": "string",
          "name": "rarity",
          "type": "string"
        },
        {
          "indexed": false,
          "internalType": "uint32",
          "name": "cardPrice",
          "type": "uint32"
        },
        {
          "indexed": false,
          "internalType": "address",
          "name": "card_owner",
          "type": "address"
        }
      ],
      "name": "newCardMinted",
      "type": "event"
    },
    {
      "inputs": [
        {
          "internalType": "address payable",
          "name": "_sender",
          "type": "address"
        },
        {
          "internalType": "uint32",
          "name": "_senderCardId",
          "type": "uint32"
        },
        {
          "internalType": "uint32",
          "name": "_receiverCardId",
          "type": "uint32"
        }
      ],
      "name": "approveTradeCardByReceiver",
      "outputs": [
        {
          "internalType": "uint8",
          "name": "",
          "type": "uint8"
        }
      ],
      "stateMutability": "payable",
      "type": "function",
      "payable": true
    },
    {
      "inputs": [
        {
          "internalType": "address payable",
          "name": "_receiver",
          "type": "address"
        },
        {
          "internalType": "uint32",
          "name": "_senderCardId",
          "type": "uint32"
        },
        {
          "internalType": "uint32",
          "name": "_receiverCardId",
          "type": "uint32"
        }
      ],
      "name": "approveTradeCardBySender",
      "outputs": [
        {
          "internalType": "uint8",
          "name": "",
          "type": "uint8"
        }
      ],
      "stateMutability": "payable",
      "type": "function",
      "payable": true
    },
    {
      "inputs": [
        {
          "internalType": "uint32",
          "name": "_card1",
          "type": "uint32"
        },
        {
          "internalType": "uint32",
          "name": "_card2",
          "type": "uint32"
        }
      ],
      "name": "getCardPriceDifference",
      "outputs": [
        {
          "internalType": "uint32",
          "name": "",
          "type": "uint32"
        }
      ],
      "stateMutability": "payable",
      "type": "function",
      "payable": true
    },
    {
      "inputs": [
        {
          "internalType": "string",
          "name": "_avatar",
          "type": "string"
        },
        {
          "internalType": "uint8",
          "name": "_power",
          "type": "uint8"
        },
        {
          "internalType": "string",
          "name": "_symbol",
          "type": "string"
        },
        {
          "internalType": "string",
          "name": "_rarity",
          "type": "string"
        }
      ],
      "name": "mintCard",
      "outputs": [
        {
          "internalType": "uint8",
          "name": "",
          "type": "uint8"
        }
      ],
      "stateMutability": "nonpayable",
      "type": "function"
    },
    {
      "inputs": [
        {
          "internalType": "uint32",
          "name": "_purchaseCardId",
          "type": "uint32"
        }
      ],
      "name": "purchaseCard",
      "outputs": [
        {
          "internalType": "uint8",
          "name": "",
          "type": "uint8"
        }
      ],
      "stateMutability": "payable",
      "type": "function",
      "payable": true
    },
    {
      "inputs": [
        {
          "internalType": "uint32",
          "name": "_sellCardId",
          "type": "uint32"
        }
      ],
      "name": "sellCard",
      "outputs": [
        {
          "internalType": "uint8",
          "name": "",
          "type": "uint8"
        }
      ],
      "stateMutability": "payable",
      "type": "function",
      "payable": true
    },
    {
      "inputs": [
        {
          "internalType": "uint32",
          "name": "_cardId",
          "type": "uint32"
        },
        {
          "internalType": "uint32",
          "name": "_newPrice",
          "type": "uint32"
        }
      ],
      "name": "setCardPrice",
      "outputs": [
        {
          "internalType": "uint8",
          "name": "",
          "type": "uint8"
        }
      ],
      "stateMutability": "nonpayable",
      "type": "function"
    },
    {
      "inputs": [
        {
          "internalType": "uint32",
          "name": "_cardId",
          "type": "uint32"
        },
        {
          "internalType": "address",
          "name": "_to",
          "type": "address"
        }
      ],
      "name": "transferCard",
      "outputs": [
        {
          "internalType": "uint8",
          "name": "",
          "type": "uint8"
        }
      ],
      "stateMutability": "nonpayable",
      "type": "function"
    },
    {
      "inputs": [
        {
          "internalType": "uint32",
          "name": "_cardId",
          "type": "uint32"
        }
      ],
      "name": "getCardPrice",
      "outputs": [
        {
          "internalType": "uint256",
          "name": "",
          "type": "uint256"
        }
      ],
      "stateMutability": "view",
      "type": "function",
      "constant": true
    },
    {
      "inputs": [
        {
          "internalType": "address",
          "name": "_cardOwner",
          "type": "address"
        }
      ],
      "name": "balanceOf",
      "outputs": [
        {
          "internalType": "uint256",
          "name": "",
          "type": "uint256"
        }
      ],
      "stateMutability": "view",
      "type": "function",
      "constant": true
    },
    {
      "inputs": [
        {
          "internalType": "uint32",
          "name": "_cardId",
          "type": "uint32"
        }
      ],
      "name": "viewCardByCardId",
      "outputs": [
        {
          "components": [
            {
              "internalType": "address payable",
              "name": "owner",
              "type": "address"
            },
            {
              "internalType": "uint8",
              "name": "power",
              "type": "uint8"
            },
            {
              "internalType": "uint32",
              "name": "card_Id",
              "type": "uint32"
            },
            {
              "internalType": "uint32",
              "name": "cardPriceInWei",
              "type": "uint32"
            },
            {
              "internalType": "string",
              "name": "avatar",
              "type": "string"
            },
            {
              "internalType": "string",
              "name": "symbol",
              "type": "string"
            },
            {
              "internalType": "string",
              "name": "rarity",
              "type": "string"
            }
          ],
          "internalType": "struct Card.card",
          "name": "",
          "type": "tuple"
        }
      ],
      "stateMutability": "nonpayable",
      "type": "function"
    },
    {
      "inputs": [],
      "name": "viewAllCards",
      "outputs": [
        {
          "internalType": "uint32[]",
          "name": "",
          "type": "uint32[]"
        }
      ],
      "stateMutability": "view",
      "type": "function",
      "constant": true
    }
  ],
  "bytecode": "0x608060405260008060006101000a81548160ff021916908360ff16021790555033600060056101000a81548173ffffffffffffffffffffffffffffffffffffffff021916908373ffffffffffffffffffffffffffffffffffffffff16021790555060008060016101000a81548163ffffffff021916908363ffffffff160217905550613f6c806100906000396000f3fe6080604052600436106100a75760003560e01c806370a082311161006457806370a08231146101ee5780639d4e64751461022b578063a7c5d5f414610268578063b779df6714610298578063e3220541146102d5578063e3a844b814610305576100a7565b80631d803579146100ac57806325e5de37146100e95780633320e731146101265780633d3930cd1461015657806341ee0fe6146101865780634c8726fd146101c3575b600080fd5b3480156100b857600080fd5b506100d360048036038101906100ce9190612ca3565b610335565b6040516100e09190613b4d565b60405180910390f35b3480156100f557600080fd5b50610110600480360381019061010b9190612c67565b61049f565b60405161011d9190613b4d565b60405180910390f35b610140600480360381019061013b9190612b44565b610856565b60405161014d9190613b4d565b60405180910390f35b610170600480360381019061016b9190612c3e565b610dd7565b60405161017d9190613b4d565b60405180910390f35b34801561019257600080fd5b506101ad60048036038101906101a89190612c3e565b6112e6565b6040516101ba9190613995565b60405180910390f35b3480156101cf57600080fd5b506101d86115e2565b6040516101e59190613713565b60405180910390f35b3480156101fa57600080fd5b5061021560048036038101906102109190612b1b565b611666565b60405161022291906139b7565b60405180910390f35b34801561023757600080fd5b50610252600480360381019061024d9190612c3e565b61171e565b60405161025f91906139b7565b60405180910390f35b610282600480360381019061027d9190612ca3565b611760565b60405161028f91906139d2565b60405180910390f35b3480156102a457600080fd5b506102bf60048036038101906102ba9190612b93565b61191b565b6040516102cc9190613b4d565b60405180910390f35b6102ef60048036038101906102ea9190612b44565b611e6a565b6040516102fc9190613b4d565b60405180910390f35b61031f600480360381019061031a9190612c3e565b6123eb565b60405161032c9190613b4d565b60405180910390f35b60003373ffffffffffffffffffffffffffffffffffffffff16600360008563ffffffff1663ffffffff16815260200190815260200160002060000160009054906101000a900473ffffffffffffffffffffffffffffffffffffffff1673ffffffffffffffffffffffffffffffffffffffff16146103e7576040517f08c379a00000000000000000000000000000000000000000000000000000000081526004016103de90613875565b60405180910390fd5b81600360008563ffffffff1663ffffffff16815260200190815260200160002060000160196101000a81548163ffffffff021916908363ffffffff1602179055507f72f0d433d89b1b06ffb0a6bf8b34f0a3de891492c2f83178186277a44df380be83600360008663ffffffff1663ffffffff16815260200190815260200160002060000160199054906101000a900463ffffffff163360405161048d93929190613b16565b60405180910390a16000905092915050565b60003373ffffffffffffffffffffffffffffffffffffffff16600360008563ffffffff1663ffffffff16815260200190815260200160002060000160009054906101000a900473ffffffffffffffffffffffffffffffffffffffff1673ffffffffffffffffffffffffffffffffffffffff1614610551576040517f08c379a0000000000000000000000000000000000000000000000000000000008152600401610548906137f5565b60405180910390fd5b600060059054906101000a900473ffffffffffffffffffffffffffffffffffffffff1673ffffffffffffffffffffffffffffffffffffffff168273ffffffffffffffffffffffffffffffffffffffff1614156105e2576040517f08c379a00000000000000000000000000000000000000000000000000000000081526004016105d990613855565b60405180910390fd5b600073ffffffffffffffffffffffffffffffffffffffff168273ffffffffffffffffffffffffffffffffffffffff161415610652576040517f08c379a000000000000000000000000000000000000000000000000000000000815260040161064990613915565b60405180910390fd5b81600360008563ffffffff1663ffffffff16815260200190815260200160002060000160006101000a81548173ffffffffffffffffffffffffffffffffffffffff021916908373ffffffffffffffffffffffffffffffffffffffff1602179055506001600460003373ffffffffffffffffffffffffffffffffffffffff1673ffffffffffffffffffffffffffffffffffffffff168152602001908152602001600020546106ff9190613cbf565b600460003373ffffffffffffffffffffffffffffffffffffffff1673ffffffffffffffffffffffffffffffffffffffff168152602001908152602001600020819055506001600460008473ffffffffffffffffffffffffffffffffffffffff1673ffffffffffffffffffffffffffffffffffffffff1681526020019081526020016000205461078e9190613c2f565b600460008473ffffffffffffffffffffffffffffffffffffffff1673ffffffffffffffffffffffffffffffffffffffff168152602001908152602001600020819055507f5b570d60af4991f468d06183ffb08a27c444f27b774e1b384cf94067b0775c2483600360008663ffffffff1663ffffffff16815260200190815260200160002060000160009054906101000a900473ffffffffffffffffffffffffffffffffffffffff166040516108449291906139ed565b60405180910390a16000905092915050565b6000600161086384612892565b60ff16146108a6576040517f08c379a000000000000000000000000000000000000000000000000000000000815260040161089d90613775565b60405180910390fd5b60016108b183612892565b60ff16146108f4576040517f08c379a00000000000000000000000000000000000000000000000000000000081526004016108eb90613775565b60405180910390fd5b8373ffffffffffffffffffffffffffffffffffffffff16600360008563ffffffff1663ffffffff16815260200190815260200160002060000160009054906101000a900473ffffffffffffffffffffffffffffffffffffffff1673ffffffffffffffffffffffffffffffffffffffff16146109a4576040517f08c379a000000000000000000000000000000000000000000000000000000000815260040161099b906138f5565b60405180910390fd5b3373ffffffffffffffffffffffffffffffffffffffff16600360008463ffffffff1663ffffffff16815260200190815260200160002060000160009054906101000a900473ffffffffffffffffffffffffffffffffffffffff1673ffffffffffffffffffffffffffffffffffffffff1614610a54576040517f08c379a0000000000000000000000000000000000000000000000000000000008152600401610a4b906138d5565b60405180910390fd5b600360008363ffffffff1663ffffffff16815260200190815260200160002060000160199054906101000a900463ffffffff1663ffffffff16600360008563ffffffff1663ffffffff16815260200190815260200160002060000160199054906101000a900463ffffffff1663ffffffff161115610db057610ad68284611760565b600560046101000a81548163ffffffff021916908363ffffffff160217905550600560049054906101000a900463ffffffff1663ffffffff16341015610b51576040517f08c379a0000000000000000000000000000000000000000000000000000000008152600401610b48906138b5565b60405180910390fd5b60011515600560089054906101000a900460ff1615151415610d54578373ffffffffffffffffffffffffffffffffffffffff166108fc600560049054906101000a900463ffffffff1663ffffffff169081150290604051600060405180830381858888f19350505050158015610bcb573d6000803e3d6000fd5b5083600360008463ffffffff1663ffffffff16815260200190815260200160002060000160006101000a81548173ffffffffffffffffffffffffffffffffffffffff021916908373ffffffffffffffffffffffffffffffffffffffff16021790555033600360008563ffffffff1663ffffffff16815260200190815260200160002060000160006101000a81548173ffffffffffffffffffffffffffffffffffffffff021916908373ffffffffffffffffffffffffffffffffffffffff1602179055507f23f47798f446143d4702e9c0ba00cbadbd900304063d8d9ca2e76b192eb4027e83600360008663ffffffff1663ffffffff16815260200190815260200160002060000160009054906101000a900473ffffffffffffffffffffffffffffffffffffffff1684600360008763ffffffff1663ffffffff16815260200190815260200160002060000160009054906101000a900473ffffffffffffffffffffffffffffffffffffffff16604051610d479493929190613a4d565b60405180910390a1610dab565b60011515600560099054906101000a900460ff16151514610daa576040517f08c379a0000000000000000000000000000000000000000000000000000000008152600401610da190613815565b60405180910390fd5b5b610dcc565b6001600560096101000a81548160ff0219169083151502179055505b600090509392505050565b60006001610de483612892565b60ff1614610e27576040517f08c379a0000000000000000000000000000000000000000000000000000000008152600401610e1e90613775565b60405180910390fd5b600360008363ffffffff1663ffffffff16815260200190815260200160002060000160199054906101000a900463ffffffff1663ffffffff16600060059054906101000a900473ffffffffffffffffffffffffffffffffffffffff1673ffffffffffffffffffffffffffffffffffffffff163111610eda576040517f08c379a0000000000000000000000000000000000000000000000000000000008152600401610ed1906137d5565b60405180910390fd5b3373ffffffffffffffffffffffffffffffffffffffff16600360008463ffffffff1663ffffffff16815260200190815260200160002060000160009054906101000a900473ffffffffffffffffffffffffffffffffffffffff1673ffffffffffffffffffffffffffffffffffffffff1614610f8a576040517f08c379a0000000000000000000000000000000000000000000000000000000008152600401610f8190613955565b60405180910390fd5b600360008363ffffffff1663ffffffff16815260200190815260200160002060000160009054906101000a900473ffffffffffffffffffffffffffffffffffffffff1673ffffffffffffffffffffffffffffffffffffffff166108fc600360008563ffffffff1663ffffffff16815260200190815260200160002060000160199054906101000a900463ffffffff1663ffffffff169081150290604051600060405180830381858888f1935050505015801561104a573d6000803e3d6000fd5b50600060059054906101000a900473ffffffffffffffffffffffffffffffffffffffff16600360008463ffffffff1663ffffffff16815260200190815260200160002060000160006101000a81548173ffffffffffffffffffffffffffffffffffffffff021916908373ffffffffffffffffffffffffffffffffffffffff1602179055506001600460003373ffffffffffffffffffffffffffffffffffffffff1673ffffffffffffffffffffffffffffffffffffffff1681526020019081526020016000205461111a9190613cbf565b600460003373ffffffffffffffffffffffffffffffffffffffff1673ffffffffffffffffffffffffffffffffffffffff168152602001908152602001600020819055506001600460008060059054906101000a900473ffffffffffffffffffffffffffffffffffffffff1673ffffffffffffffffffffffffffffffffffffffff1673ffffffffffffffffffffffffffffffffffffffff168152602001908152602001600020546111ca9190613c2f565b600460008060059054906101000a900473ffffffffffffffffffffffffffffffffffffffff1673ffffffffffffffffffffffffffffffffffffffff1673ffffffffffffffffffffffffffffffffffffffff168152602001908152602001600020819055507fe65ffbcae4fa0903b18f7d7b1aff3e5c09bde4322a44481b2b30969f15dd5bc782600360008563ffffffff1663ffffffff16815260200190815260200160002060000160009054906101000a900473ffffffffffffffffffffffffffffffffffffffff16600360008663ffffffff1663ffffffff16815260200190815260200160002060000160199054906101000a900463ffffffff166040516112d593929190613a16565b60405180910390a160009050919050565b6112ee61295a565b60016112f983612892565b60ff161461133c576040517f08c379a000000000000000000000000000000000000000000000000000000000815260040161133390613935565b60405180910390fd5b600360008363ffffffff1663ffffffff1681526020019081526020016000206040518060e00160405290816000820160009054906101000a900473ffffffffffffffffffffffffffffffffffffffff1673ffffffffffffffffffffffffffffffffffffffff1673ffffffffffffffffffffffffffffffffffffffff1681526020016000820160149054906101000a900460ff1660ff1660ff1681526020016000820160159054906101000a900463ffffffff1663ffffffff1663ffffffff1681526020016000820160199054906101000a900463ffffffff1663ffffffff1663ffffffff16815260200160018201805461143590613e0a565b80601f016020809104026020016040519081016040528092919081815260200182805461146190613e0a565b80156114ae5780601f10611483576101008083540402835291602001916114ae565b820191906000526020600020905b81548152906001019060200180831161149157829003601f168201915b505050505081526020016002820180546114c790613e0a565b80601f01602080910402602001604051908101604052809291908181526020018280546114f390613e0a565b80156115405780601f1061151557610100808354040283529160200191611540565b820191906000526020600020905b81548152906001019060200180831161152357829003601f168201915b5050505050815260200160038201805461155990613e0a565b80601f016020809104026020016040519081016040528092919081815260200182805461158590613e0a565b80156115d25780601f106115a7576101008083540402835291602001916115d2565b820191906000526020600020905b8154815290600101906020018083116115b557829003601f168201915b5050505050815250509050919050565b6060600180548060200260200160405190810160405280929190818152602001828054801561165c57602002820191906000526020600020906000905b82829054906101000a900463ffffffff1663ffffffff168152602001906004019060208260030104928301926001038202915080841161161f5790505b5050505050905090565b60008073ffffffffffffffffffffffffffffffffffffffff168273ffffffffffffffffffffffffffffffffffffffff1614156116d7576040517f08c379a00000000000000000000000000000000000000000000000000000000081526004016116ce90613895565b60405180910390fd5b600460008373ffffffffffffffffffffffffffffffffffffffff1673ffffffffffffffffffffffffffffffffffffffff168152602001908152602001600020549050919050565b6000600360008363ffffffff1663ffffffff16815260200190815260200160002060000160199054906101000a900463ffffffff1663ffffffff169050919050565b6000600360008363ffffffff1663ffffffff16815260200190815260200160002060000160199054906101000a900463ffffffff1663ffffffff16600360008563ffffffff1663ffffffff16815260200190815260200160002060000160199054906101000a900463ffffffff1663ffffffff16111561186f57600360008363ffffffff1663ffffffff16815260200190815260200160002060000160199054906101000a900463ffffffff16600360008563ffffffff1663ffffffff16815260200190815260200160002060000160199054906101000a900463ffffffff1661184a9190613cf3565b600560006101000a81548163ffffffff021916908363ffffffff160217905550611900565b600360008463ffffffff1663ffffffff16815260200190815260200160002060000160199054906101000a900463ffffffff16600360008463ffffffff1663ffffffff16815260200190815260200160002060000160199054906101000a900463ffffffff166118df9190613cf3565b600560006101000a81548163ffffffff021916908363ffffffff1602179055505b600560009054906101000a900463ffffffff16905092915050565b6000803373ffffffffffffffffffffffffffffffffffffffff163111611976576040517f08c379a000000000000000000000000000000000000000000000000000000000815260040161196d90613975565b60405180910390fd5b600060059054906101000a900473ffffffffffffffffffffffffffffffffffffffff1673ffffffffffffffffffffffffffffffffffffffff163373ffffffffffffffffffffffffffffffffffffffff1614611a06576040517f08c379a00000000000000000000000000000000000000000000000000000000081526004016119fd90613835565b60405180910390fd5b6001600060019054906101000a900463ffffffff16611a259190613c85565b600060016101000a81548163ffffffff021916908363ffffffff1602179055506001600060019054906101000a900463ffffffff1690806001815401808255809150506001900390600052602060002090600891828204019190066004029091909190916101000a81548163ffffffff021916908363ffffffff16021790555060018080549050611ab69190613cbf565b600260008060019054906101000a900463ffffffff1663ffffffff1663ffffffff16815260200190815260200160002081905550600060019054906101000a900463ffffffff16600360008060019054906101000a900463ffffffff1663ffffffff1663ffffffff16815260200190815260200160002060000160156101000a81548163ffffffff021916908363ffffffff16021790555033600360008060019054906101000a900463ffffffff1663ffffffff1663ffffffff16815260200190815260200160002060000160006101000a81548173ffffffffffffffffffffffffffffffffffffffff021916908373ffffffffffffffffffffffffffffffffffffffff16021790555084600360008060019054906101000a900463ffffffff1663ffffffff1663ffffffff1681526020019081526020016000206001019080519060200190611c079291906129bc565b5083600360008060019054906101000a900463ffffffff1663ffffffff1663ffffffff16815260200190815260200160002060000160146101000a81548160ff021916908360ff16021790555082600360008060019054906101000a900463ffffffff1663ffffffff1663ffffffff1681526020019081526020016000206002019080519060200190611c9b9291906129bc565b5081600360008060019054906101000a900463ffffffff1663ffffffff1663ffffffff1681526020019081526020016000206003019080519060200190611ce39291906129bc565b506064600360008060019054906101000a900463ffffffff1663ffffffff1663ffffffff16815260200190815260200160002060000160196101000a81548163ffffffff021916908363ffffffff1602179055506001600460003373ffffffffffffffffffffffffffffffffffffffff1673ffffffffffffffffffffffffffffffffffffffff16815260200190815260200160002054611d839190613c2f565b600460003373ffffffffffffffffffffffffffffffffffffffff1673ffffffffffffffffffffffffffffffffffffffff168152602001908152602001600020819055507f1468e04c2db3369ea111a40f06be37e52539b061dddba01e1439bdecd424bae3600060019054906101000a900463ffffffff1686868686600360008060019054906101000a900463ffffffff1663ffffffff1663ffffffff16815260200190815260200160002060000160199054906101000a900463ffffffff1633604051611e569796959493929190613a92565b60405180910390a160009050949350505050565b60006001611e7784612892565b60ff1614611eba576040517f08c379a0000000000000000000000000000000000000000000000000000000008152600401611eb190613775565b60405180910390fd5b6001611ec583612892565b60ff1614611f08576040517f08c379a0000000000000000000000000000000000000000000000000000000008152600401611eff90613775565b60405180910390fd5b3373ffffffffffffffffffffffffffffffffffffffff16600360008563ffffffff1663ffffffff16815260200190815260200160002060000160009054906101000a900473ffffffffffffffffffffffffffffffffffffffff1673ffffffffffffffffffffffffffffffffffffffff1614611fb8576040517f08c379a0000000000000000000000000000000000000000000000000000000008152600401611faf906138f5565b60405180910390fd5b8373ffffffffffffffffffffffffffffffffffffffff16600360008463ffffffff1663ffffffff16815260200190815260200160002060000160009054906101000a900473ffffffffffffffffffffffffffffffffffffffff1673ffffffffffffffffffffffffffffffffffffffff1614612068576040517f08c379a000000000000000000000000000000000000000000000000000000000815260040161205f906138d5565b60405180910390fd5b600360008463ffffffff1663ffffffff16815260200190815260200160002060000160199054906101000a900463ffffffff1663ffffffff16600360008463ffffffff1663ffffffff16815260200190815260200160002060000160199054906101000a900463ffffffff1663ffffffff1611156123c4576120ea8284611760565b600560046101000a81548163ffffffff021916908363ffffffff160217905550600560049054906101000a900463ffffffff1663ffffffff16341015612165576040517f08c379a000000000000000000000000000000000000000000000000000000000815260040161215c906137b5565b60405180910390fd5b60011515600560099054906101000a900460ff1615151415612368578373ffffffffffffffffffffffffffffffffffffffff166108fc600560049054906101000a900463ffffffff1663ffffffff169081150290604051600060405180830381858888f193505050501580156121df573d6000803e3d6000fd5b5033600360008463ffffffff1663ffffffff16815260200190815260200160002060000160006101000a81548173ffffffffffffffffffffffffffffffffffffffff021916908373ffffffffffffffffffffffffffffffffffffffff16021790555083600360008563ffffffff1663ffffffff16815260200190815260200160002060000160006101000a81548173ffffffffffffffffffffffffffffffffffffffff021916908373ffffffffffffffffffffffffffffffffffffffff1602179055507f23f47798f446143d4702e9c0ba00cbadbd900304063d8d9ca2e76b192eb4027e83600360008663ffffffff1663ffffffff16815260200190815260200160002060000160009054906101000a900473ffffffffffffffffffffffffffffffffffffffff1684600360008763ffffffff1663ffffffff16815260200190815260200160002060000160009054906101000a900473ffffffffffffffffffffffffffffffffffffffff1660405161235b9493929190613a4d565b60405180910390a16123bf565b60011515600560099054906101000a900460ff161515146123be576040517f08c379a00000000000000000000000000000000000000000000000000000000081526004016123b590613815565b60405180910390fd5b5b6123e0565b6001600560086101000a81548160ff0219169083151502179055505b600090509392505050565b600060016123f883612892565b60ff161461243b576040517f08c379a000000000000000000000000000000000000000000000000000000000815260040161243290613775565b60405180910390fd5b600060059054906101000a900473ffffffffffffffffffffffffffffffffffffffff1673ffffffffffffffffffffffffffffffffffffffff16600360008463ffffffff1663ffffffff16815260200190815260200160002060000160009054906101000a900473ffffffffffffffffffffffffffffffffffffffff1673ffffffffffffffffffffffffffffffffffffffff161461250d576040517f08c379a000000000000000000000000000000000000000000000000000000000815260040161250490613755565b60405180910390fd5b600360008363ffffffff1663ffffffff16815260200190815260200160002060000160199054906101000a900463ffffffff1663ffffffff163373ffffffffffffffffffffffffffffffffffffffff16311161259e576040517f08c379a000000000000000000000000000000000000000000000000000000000815260040161259590613735565b60405180910390fd5b600360008363ffffffff1663ffffffff16815260200190815260200160002060000160199054906101000a900463ffffffff1663ffffffff16341015612619576040517f08c379a000000000000000000000000000000000000000000000000000000000815260040161261090613795565b60405180910390fd5b33600360008463ffffffff1663ffffffff16815260200190815260200160002060000160006101000a81548173ffffffffffffffffffffffffffffffffffffffff021916908373ffffffffffffffffffffffffffffffffffffffff1602179055506001600460003373ffffffffffffffffffffffffffffffffffffffff1673ffffffffffffffffffffffffffffffffffffffff168152602001908152602001600020546126c69190613c2f565b600460003373ffffffffffffffffffffffffffffffffffffffff1673ffffffffffffffffffffffffffffffffffffffff168152602001908152602001600020819055506001600460008060059054906101000a900473ffffffffffffffffffffffffffffffffffffffff1673ffffffffffffffffffffffffffffffffffffffff1673ffffffffffffffffffffffffffffffffffffffff168152602001908152602001600020546127769190613cbf565b600460008060059054906101000a900473ffffffffffffffffffffffffffffffffffffffff1673ffffffffffffffffffffffffffffffffffffffff1673ffffffffffffffffffffffffffffffffffffffff168152602001908152602001600020819055507f4fbe8f1ad046acc607414241491091f483f87cf0200e8eee53826b9a0c66229482600360008563ffffffff1663ffffffff16815260200190815260200160002060000160009054906101000a900473ffffffffffffffffffffffffffffffffffffffff16600360008663ffffffff1663ffffffff16815260200190815260200160002060000160199054906101000a900463ffffffff1660405161288193929190613a16565b60405180910390a160009050919050565b60008073ffffffffffffffffffffffffffffffffffffffff16600360008463ffffffff1663ffffffff16815260200190815260200160002060000160009054906101000a900473ffffffffffffffffffffffffffffffffffffffff1673ffffffffffffffffffffffffffffffffffffffff16146129295760016000806101000a81548160ff021916908360ff160217905550612945565b60008060006101000a81548160ff021916908360ff1602179055505b60008054906101000a900460ff169050919050565b6040518060e00160405280600073ffffffffffffffffffffffffffffffffffffffff168152602001600060ff168152602001600063ffffffff168152602001600063ffffffff1681526020016060815260200160608152602001606081525090565b8280546129c890613e0a565b90600052602060002090601f0160209004810192826129ea5760008555612a31565b82601f10612a0357805160ff1916838001178555612a31565b82800160010185558215612a31579182015b82811115612a30578251825591602001919060010190612a15565b5b509050612a3e9190612a42565b5090565b5b80821115612a5b576000816000905550600101612a43565b5090565b6000612a72612a6d84613b99565b613b68565b905082815260208101848484011115612a8a57600080fd5b612a95848285613dc8565b509392505050565b600081359050612aac81613eda565b92915050565b600081359050612ac181613ef1565b92915050565b600082601f830112612ad857600080fd5b8135612ae8848260208601612a5f565b91505092915050565b600081359050612b0081613f08565b92915050565b600081359050612b1581613f1f565b92915050565b600060208284031215612b2d57600080fd5b6000612b3b84828501612a9d565b91505092915050565b600080600060608486031215612b5957600080fd5b6000612b6786828701612ab2565b9350506020612b7886828701612af1565b9250506040612b8986828701612af1565b9150509250925092565b60008060008060808587031215612ba957600080fd5b600085013567ffffffffffffffff811115612bc357600080fd5b612bcf87828801612ac7565b9450506020612be087828801612b06565b935050604085013567ffffffffffffffff811115612bfd57600080fd5b612c0987828801612ac7565b925050606085013567ffffffffffffffff811115612c2657600080fd5b612c3287828801612ac7565b91505092959194509250565b600060208284031215612c5057600080fd5b6000612c5e84828501612af1565b91505092915050565b60008060408385031215612c7a57600080fd5b6000612c8885828601612af1565b9250506020612c9985828601612a9d565b9150509250929050565b60008060408385031215612cb657600080fd5b6000612cc485828601612af1565b9250506020612cd585828601612af1565b9150509250929050565b6000612ceb83836136d7565b60208301905092915050565b612d0081613d92565b82525050565b612d0f81613d39565b82525050565b612d1e81613d27565b82525050565b6000612d2f82613bd9565b612d398185613bfc565b9350612d4483613bc9565b8060005b83811015612d75578151612d5c8882612cdf565b9750612d6783613bef565b925050600181019050612d48565b5085935050505092915050565b6000612d8d82613be4565b612d978185613c0d565b9350612da7818560208601613dd7565b612db081613ec9565b840191505092915050565b6000612dc682613be4565b612dd08185613c1e565b9350612de0818560208601613dd7565b612de981613ec9565b840191505092915050565b6000612e01601f83613c1e565b91507f5573657220646f6573206e6f74206861766520656e6f756768206574686572006000830152602082019050919050565b6000612e41602283613c1e565b91507f43617264206973206e6f7420617661696c61626c6520666f722070757263686160008301527f73650000000000000000000000000000000000000000000000000000000000006020830152604082019050919050565b6000612ea7601483613c1e565b91507f4361726420646f6573206e6f74206578697374730000000000000000000000006000830152602082019050919050565b6000612ee7602483613c1e565b91507f507572636861736520746f6b656e3a204e6f742073756666696369656e74206660008301527f756e6473000000000000000000000000000000000000000000000000000000006020830152604082019050919050565b6000612f4d609c83613c1e565b91507f53656e646572206e6565647320746f20706179206164646974696f6e616c206360008301527f6f7374206f66206361726420776974682074686973207472616e73616374696f60208301527f6e2e20506c6561736520636865636b207468652070726963652064696666657260408301527f656e636520616e642072756e20746865207472616e73616374696f6e2061676160608301527f696e20776974682073756666696369656e74206d73672e76616c756500000000608083015260a082019050919050565b6000613025602f83613c1e565b91507f436f6e74726163742061646d696e20646f6573206e6f7420686176652073756660008301527f66696369656e742062616c616e636500000000000000000000000000000000006020830152604082019050919050565b600061308b602983613c1e565b91507f436172642063616e206f6e6c79206265207472616e736665727265642062792060008301527f746865206f776e657200000000000000000000000000000000000000000000006020830152604082019050919050565b60006130f1606683613c1e565b91507f466f722062616c616e6365207472616e736665722066726f6d2073656e64657260008301527f2c2074726164652073686f756c6420626520666972737420617070726f76656460208301527f20627920726563656976657220616e64207468656e2063616c6c65642062792060408301527f73656e64657200000000000000000000000000000000000000000000000000006060830152608082019050919050565b60006131a3602283613c1e565b91507f4f6e6c7920636f6e74726163742061646d696e2063616e206d696e742063617260008301527f64730000000000000000000000000000000000000000000000000000000000006020830152604082019050919050565b6000613209603c83613c1e565b91507f43617264732073686f756c6420626520736f6c6420616e64206e6f742074726160008301527f6e7366657272656420746f20436f6e74726163742061646472657373000000006020830152604082019050919050565b600061326f602183613c1e565b91507f4f6e6c792063617264206f776e65722063616e2073657420746865207072696360008301527f65000000000000000000000000000000000000000000000000000000000000006020830152604082019050919050565b60006132d5602283613c1e565b91507f42616c616e636520717565727920666f7220746865207a65726f20616464726560008301527f73730000000000000000000000000000000000000000000000000000000000006020830152604082019050919050565b600061333b609e83613c1e565b91507f5265636569766572206e6565647320746f20706179206164646974696f6e616c60008301527f20636f7374206f66206361726420776974682074686973207472616e7361637460208301527f696f6e2e20506c6561736520636865636b20746865207072696365206469666660408301527f6572656e636520616e642072756e20746865207472616e73616374696f6e206160608301527f6761696e20776974682073756666696369656e74206d73672e76616c75650000608083015260a082019050919050565b6000613413603383613c1e565b91507f436172642072657175657374656420746f2074726164652073686f756c64206260008301527f65206f776e6564206279207265636569766572000000000000000000000000006020830152604082019050919050565b6000613479603083613c1e565b91507f436172642073686f756c64206265206f776e656420627920747261646520726560008301527f71756573746f7220746f207472616465000000000000000000000000000000006020830152604082019050919050565b60006134df601583613c1e565b91507f546f206164647265737320697320696e76616c696400000000000000000000006000830152602082019050919050565b600061351f601383613c1e565b91507f4361726420646f6573206e6f74206578697374000000000000000000000000006000830152602082019050919050565b600061355f602883613c1e565b91507f4f6e6c79206f776e6572206f662074686520636172642063616e2073656c6c2060008301527f74686520636172640000000000000000000000000000000000000000000000006020830152604082019050919050565b60006135c5602d83613c1e565b91507f4275796572206163636f756e742068617320696e7375666669656369656e742060008301527f45746865722062616c616e6365000000000000000000000000000000000000006020830152604082019050919050565b600060e0830160008301516136366000860182612d06565b50602083015161364960208601826136f5565b50604083015161365c60408601826136d7565b50606083015161366f60608601826136d7565b50608083015184820360808601526136878282612d82565b91505060a083015184820360a08601526136a18282612d82565b91505060c083015184820360c08601526136bb8282612d82565b9150508091505092915050565b6136d181613d6b565b82525050565b6136e081613d75565b82525050565b6136ef81613d75565b82525050565b6136fe81613d85565b82525050565b61370d81613d85565b82525050565b6000602082019050818103600083015261372d8184612d24565b905092915050565b6000602082019050818103600083015261374e81612df4565b9050919050565b6000602082019050818103600083015261376e81612e34565b9050919050565b6000602082019050818103600083015261378e81612e9a565b9050919050565b600060208201905081810360008301526137ae81612eda565b9050919050565b600060208201905081810360008301526137ce81612f40565b9050919050565b600060208201905081810360008301526137ee81613018565b9050919050565b6000602082019050818103600083015261380e8161307e565b9050919050565b6000602082019050818103600083015261382e816130e4565b9050919050565b6000602082019050818103600083015261384e81613196565b9050919050565b6000602082019050818103600083015261386e816131fc565b9050919050565b6000602082019050818103600083015261388e81613262565b9050919050565b600060208201905081810360008301526138ae816132c8565b9050919050565b600060208201905081810360008301526138ce8161332e565b9050919050565b600060208201905081810360008301526138ee81613406565b9050919050565b6000602082019050818103600083015261390e8161346c565b9050919050565b6000602082019050818103600083015261392e816134d2565b9050919050565b6000602082019050818103600083015261394e81613512565b9050919050565b6000602082019050818103600083015261396e81613552565b9050919050565b6000602082019050818103600083015261398e816135b8565b9050919050565b600060208201905081810360008301526139af818461361e565b905092915050565b60006020820190506139cc60008301846136c8565b92915050565b60006020820190506139e760008301846136e6565b92915050565b6000604082019050613a0260008301856136e6565b613a0f6020830184612cf7565b9392505050565b6000606082019050613a2b60008301866136e6565b613a386020830185612cf7565b613a4560408301846136e6565b949350505050565b6000608082019050613a6260008301876136e6565b613a6f6020830186612cf7565b613a7c60408301856136e6565b613a896060830184612cf7565b95945050505050565b600060e082019050613aa7600083018a6136e6565b8181036020830152613ab98189612dbb565b9050613ac86040830188613704565b8181036060830152613ada8187612dbb565b90508181036080830152613aee8186612dbb565b9050613afd60a08301856136e6565b613b0a60c0830184612d15565b98975050505050505050565b6000606082019050613b2b60008301866136e6565b613b3860208301856136e6565b613b456040830184612d15565b949350505050565b6000602082019050613b626000830184613704565b92915050565b6000604051905081810181811067ffffffffffffffff82111715613b8f57613b8e613e9a565b5b8060405250919050565b600067ffffffffffffffff821115613bb457613bb3613e9a565b5b601f19601f8301169050602081019050919050565b6000819050602082019050919050565b600081519050919050565b600081519050919050565b6000602082019050919050565b600082825260208201905092915050565b600082825260208201905092915050565b600082825260208201905092915050565b6000613c3a82613d6b565b9150613c4583613d6b565b9250827fffffffffffffffffffffffffffffffffffffffffffffffffffffffffffffffff03821115613c7a57613c79613e3c565b5b828201905092915050565b6000613c9082613d75565b9150613c9b83613d75565b92508263ffffffff03821115613cb457613cb3613e3c565b5b828201905092915050565b6000613cca82613d6b565b9150613cd583613d6b565b925082821015613ce857613ce7613e3c565b5b828203905092915050565b6000613cfe82613d75565b9150613d0983613d75565b925082821015613d1c57613d1b613e3c565b5b828203905092915050565b6000613d3282613d4b565b9050919050565b6000613d4482613d4b565b9050919050565b600073ffffffffffffffffffffffffffffffffffffffff82169050919050565b6000819050919050565b600063ffffffff82169050919050565b600060ff82169050919050565b6000613d9d82613da4565b9050919050565b6000613daf82613db6565b9050919050565b6000613dc182613d4b565b9050919050565b82818337600083830152505050565b60005b83811015613df5578082015181840152602081019050613dda565b83811115613e04576000848401525b50505050565b60006002820490506001821680613e2257607f821691505b60208210811415613e3657613e35613e6b565b5b50919050565b7f4e487b7100000000000000000000000000000000000000000000000000000000600052601160045260246000fd5b7f4e487b7100000000000000000000000000000000000000000000000000000000600052602260045260246000fd5b7f4e487b7100000000000000000000000000000000000000000000000000000000600052604160045260246000fd5b6000601f19601f8301169050919050565b613ee381613d27565b8114613eee57600080fd5b50565b613efa81613d39565b8114613f0557600080fd5b50565b613f1181613d75565b8114613f1c57600080fd5b50565b613f2881613d85565b8114613f3357600080fd5b5056fea264697066735822122086d968fca3006d4a9e2b9271c1f62309fc8c48907ad8326ed615a5a768c2276f64736f6c63430008000033",
  "immutableReferences": {},
  "source": "pragma solidity ^0.8.0;\n\n/**\n * @title PokemonToken\n * @dev Mint , sell and purchase Pokemon token\n */\n \nimport './Card.sol';\nimport './MintCard.sol';\nimport './SellCard.sol';\nimport './Exists.sol';\nimport './PurchaseCard.sol';\nimport './TransferCard.sol';\nimport './SetCardPrice.sol';\nimport './TradeCard.sol';\nimport './PriceDifference.sol';\n\ncontract PokemonToken is Card, Exists, PriceDifference, SellCard, MintCard, PurchaseCard, TransferCard, SetCardPrice, TradeCard {\n    \n\n    constructor() payable {\n        admin=payable (msg.sender);\n        cardId=0;\n    }\n    \n    /**\n     * @dev getCardPrice : function to initiate trade card can only be called by sender\n     * @param _cardId : Current card id\n     */\n\n    function getCardPrice(uint32 _cardId) public view returns(uint256){\n        return _card[_cardId].cardPriceInWei;\n    }\n    \n    /**\n     * @dev balanceOf : function to initiate trade card can only be called by sender\n     * @param _cardOwner : Owner of current card\n     */\n    \n    function balanceOf(address _cardOwner) public view returns (uint) {\n        require(_cardOwner != address(0), \"Balance query for the zero address\");\n        return _balances[_cardOwner];\n    }\n\n    /**\n     * @dev viewCardByCardId : function to initiate trade card can only be called by sender\n     * @param _cardId : Id of current card\n     */\n    function viewCardByCardId(uint32 _cardId) public returns(card memory){\n        require(_exists(_cardId)==1, \"Card does not exist\");\n        return _card[_cardId];\n    }\n    \n    /**\n     * @dev viewAllCards : function to initiate trade card can only be called by sender\n     */\n    \n    function viewAllCards() public view returns(uint32[] memory){\n        return cardIds;\n    }\n\n}",
  "sourcePath": "/Users/rogueguy/Downloads/PK/PokemonToken/PokemonToken/contracts/PokemonToken.sol",
  "compiler": {
    "name": "solc",
    "version": "0.8.0+commit.c7dfd78e.Emscripten.clang"
  },
  "schemaVersion": "3.4.1",
  "updatedAt": "2021-06-26T17:23:39.161Z",
  "networkType": "ethereum",
  "devdoc": {
    "kind": "dev",
    "methods": {
      "approveTradeCardByReceiver(address,uint32,uint32)": {
        "details": "approveTradeCardByReceiver : function to initiate trade card can only be called by sender",
        "params": {
          "_receiverCardId": ": Receiver's card id",
          "_sender": ": Receiver or second party",
          "_senderCardId": ": Sender's card id"
        }
      },
      "approveTradeCardBySender(address,uint32,uint32)": {
        "details": "approveTradeCardBySender : function to initiate trade card can only be called by sender",
        "params": {
          "_receiver": ": Receiver or second party",
          "_receiverCardId": ": Receiver's card id",
          "_senderCardId": ": Sender's card id"
        }
      },
      "balanceOf(address)": {
        "details": "balanceOf : function to initiate trade card can only be called by sender",
        "params": {
          "_cardOwner": ": Owner of current card"
        }
      },
      "getCardPrice(uint32)": {
        "details": "getCardPrice : function to initiate trade card can only be called by sender",
        "params": {
          "_cardId": ": Current card id"
        }
      },
      "getCardPriceDifference(uint32,uint32)": {
        "details": "function to initiate trade card can only be called by sender",
        "params": {
          "_card1": ": First card id",
          "_card2": ": Second card id"
        }
      },
      "mintCard(string,uint8,string,string)": {
        "details": "function to confirm if gas fees is paid to Dbilia and trigger mintWithUSD",
        "params": {
          "_avatar": "- input parameter",
          "_power": "- input parameter",
          "_rarity": "- input parameter",
          "_symbol": "- input parameter"
        }
      },
      "purchaseCard(uint32)": {
        "details": "purchaseCard : function to initiate trade card can only be called by sender",
        "params": {
          "_purchaseCardId": ": Card id to purchase"
        }
      },
      "sellCard(uint32)": {
        "details": "sellCard : function to sell card to contract address in exchange of ether",
        "params": {
          "_sellCardId": "- id of card to be sold."
        }
      },
      "setCardPrice(uint32,uint32)": {
        "details": "setCardPrice : function to mint tokens with ETH",
        "params": {
          "_cardId": "- id of card",
          "_newPrice": "- new Price"
        }
      },
      "transferCard(uint32,address)": {
        "details": "transferCard : function to initiate trade card can only be called by sender",
        "params": {
          "_cardId": ": Current card id",
          "_to": ": receiver's address"
        }
      },
      "viewAllCards()": {
        "details": "viewAllCards : function to initiate trade card can only be called by sender"
      },
      "viewCardByCardId(uint32)": {
        "details": "viewCardByCardId : function to initiate trade card can only be called by sender",
        "params": {
          "_cardId": ": Id of current card"
        }
      }
    },
    "version": 1
  },
  "userdoc": {
    "kind": "user",
    "methods": {},
    "version": 1
  }
}