{
  "contractName": "PriceDifference",
  "abi": [
    {
      "inputs": [
        {
          "internalType": "uint32",
          "name": "_card1",
          "type": "uint32"
        },
        {
          "internalType": "uint32",
          "name": "_card2",
          "type": "uint32"
        }
      ],
      "name": "getCardPriceDifference",
      "outputs": [
        {
          "internalType": "uint32",
          "name": "",
          "type": "uint32"
        }
      ],
      "stateMutability": "payable",
      "type": "function"
    }
  ],
  "bytecode": "0x608060405260008060006101000a81548160ff021916908360ff16021790555034801561002b57600080fd5b506103498061003b6000396000f3fe60806040526004361061001e5760003560e01c8063a7c5d5f414610023575b600080fd5b61003d60048036038101906100389190610223565b610053565b60405161004a919061026e565b60405180910390f35b6000600360008363ffffffff1663ffffffff16815260200190815260200160002060000160199054906101000a900463ffffffff1663ffffffff16600360008563ffffffff1663ffffffff16815260200190815260200160002060000160199054906101000a900463ffffffff1663ffffffff16111561016257600360008363ffffffff1663ffffffff16815260200190815260200160002060000160199054906101000a900463ffffffff16600360008563ffffffff1663ffffffff16815260200190815260200160002060000160199054906101000a900463ffffffff1661013d9190610289565b600560006101000a81548163ffffffff021916908363ffffffff1602179055506101f3565b600360008463ffffffff1663ffffffff16815260200190815260200160002060000160199054906101000a900463ffffffff16600360008463ffffffff1663ffffffff16815260200190815260200160002060000160199054906101000a900463ffffffff166101d29190610289565b600560006101000a81548163ffffffff021916908363ffffffff1602179055505b600560009054906101000a900463ffffffff16905092915050565b60008135905061021d816102fc565b92915050565b6000806040838503121561023657600080fd5b60006102448582860161020e565b92505060206102558582860161020e565b9150509250929050565b610268816102bd565b82525050565b6000602082019050610283600083018461025f565b92915050565b6000610294826102bd565b915061029f836102bd565b9250828210156102b2576102b16102cd565b5b828203905092915050565b600063ffffffff82169050919050565b7f4e487b7100000000000000000000000000000000000000000000000000000000600052601160045260246000fd5b610305816102bd565b811461031057600080fd5b5056fea26469706673582212200c52b64fa93c93675be836ac799e728fbd8827beb664b8c85f0e8f671a3b685b64736f6c63430008000033",
  "immutableReferences": {},
  "source": "pragma solidity ^0.8.0;\n\n/**\n * @title PriceDifference\n * @dev to check price difference between two cards\n */\n \nimport './Exists.sol';\nimport './Card.sol';\n\ncontract PriceDifference is Card, Exists{\n    \n    uint32 priceDifference;\n    \n    /**\n     * @dev function to initiate trade card can only be called by sender\n     * @param _card1 : First card id\n     * @param _card2 : Second card id\n     */\n     \n    function getCardPriceDifference(uint32 _card1, uint32 _card2) public payable returns(uint32){\n        if(_card[_card1].cardPriceInWei> _card[_card2].cardPriceInWei)\n            priceDifference = _card[_card1].cardPriceInWei - _card[_card2].cardPriceInWei;\n        else\n            priceDifference = _card[_card2].cardPriceInWei - _card[_card1].cardPriceInWei;\n        return priceDifference;\n    }\n       \n}",
  "sourcePath": "/Users/rogueguy/Downloads/PK/PokemonToken/PokemonToken/contracts/PriceDifference.sol",
  "compiler": {
    "name": "solc",
    "version": "0.8.0+commit.c7dfd78e.Emscripten.clang"
  },
  "schemaVersion": "3.4.1",
  "updatedAt": "2021-06-26T17:20:59.373Z",
  "devdoc": {
    "kind": "dev",
    "methods": {
      "getCardPriceDifference(uint32,uint32)": {
        "details": "function to initiate trade card can only be called by sender",
        "params": {
          "_card1": ": First card id",
          "_card2": ": Second card id"
        }
      }
    },
    "version": 1
  },
  "userdoc": {
    "kind": "user",
    "methods": {},
    "version": 1
  }
}