{
  "contractName": "PurchaseCard",
  "abi": [
    {
      "anonymous": false,
      "inputs": [
        {
          "indexed": false,
          "internalType": "uint32",
          "name": "cardPurchasedId",
          "type": "uint32"
        },
        {
          "indexed": false,
          "internalType": "address",
          "name": "newOwner",
          "type": "address"
        },
        {
          "indexed": false,
          "internalType": "uint32",
          "name": "purchasePrice",
          "type": "uint32"
        }
      ],
      "name": "cardPurchased",
      "type": "event"
    },
    {
      "inputs": [
        {
          "internalType": "uint32",
          "name": "_purchaseCardId",
          "type": "uint32"
        }
      ],
      "name": "purchaseCard",
      "outputs": [
        {
          "internalType": "uint8",
          "name": "",
          "type": "uint8"
        }
      ],
      "stateMutability": "payable",
      "type": "function"
    }
  ],
  "bytecode": "0x608060405260008060006101000a81548160ff021916908360ff16021790555034801561002b57600080fd5b506109df8061003b6000396000f3fe60806040526004361061001e5760003560e01c8063e3a844b814610023575b600080fd5b61003d600480360381019061003891906105d7565b610053565b60405161004a9190610830565b60405180910390f35b60006001610060836104fa565b60ff16146100a3576040517f08c379a000000000000000000000000000000000000000000000000000000000815260040161009a906107b9565b60405180910390fd5b600060059054906101000a900473ffffffffffffffffffffffffffffffffffffffff1673ffffffffffffffffffffffffffffffffffffffff16600360008463ffffffff1663ffffffff16815260200190815260200160002060000160009054906101000a900473ffffffffffffffffffffffffffffffffffffffff1673ffffffffffffffffffffffffffffffffffffffff1614610175576040517f08c379a000000000000000000000000000000000000000000000000000000000815260040161016c90610799565b60405180910390fd5b600360008363ffffffff1663ffffffff16815260200190815260200160002060000160199054906101000a900463ffffffff1663ffffffff163373ffffffffffffffffffffffffffffffffffffffff163111610206576040517f08c379a00000000000000000000000000000000000000000000000000000000081526004016101fd90610779565b60405180910390fd5b600360008363ffffffff1663ffffffff16815260200190815260200160002060000160199054906101000a900463ffffffff1663ffffffff16341015610281576040517f08c379a0000000000000000000000000000000000000000000000000000000008152600401610278906107d9565b60405180910390fd5b33600360008463ffffffff1663ffffffff16815260200190815260200160002060000160006101000a81548173ffffffffffffffffffffffffffffffffffffffff021916908373ffffffffffffffffffffffffffffffffffffffff1602179055506001600460003373ffffffffffffffffffffffffffffffffffffffff1673ffffffffffffffffffffffffffffffffffffffff1681526020019081526020016000205461032e919061085c565b600460003373ffffffffffffffffffffffffffffffffffffffff1673ffffffffffffffffffffffffffffffffffffffff168152602001908152602001600020819055506001600460008060059054906101000a900473ffffffffffffffffffffffffffffffffffffffff1673ffffffffffffffffffffffffffffffffffffffff1673ffffffffffffffffffffffffffffffffffffffff168152602001908152602001600020546103de91906108b2565b600460008060059054906101000a900473ffffffffffffffffffffffffffffffffffffffff1673ffffffffffffffffffffffffffffffffffffffff1673ffffffffffffffffffffffffffffffffffffffff168152602001908152602001600020819055507f4fbe8f1ad046acc607414241491091f483f87cf0200e8eee53826b9a0c66229482600360008563ffffffff1663ffffffff16815260200190815260200160002060000160009054906101000a900473ffffffffffffffffffffffffffffffffffffffff16600360008663ffffffff1663ffffffff16815260200190815260200160002060000160199054906101000a900463ffffffff166040516104e9939291906107f9565b60405180910390a160009050919050565b60008073ffffffffffffffffffffffffffffffffffffffff16600360008463ffffffff1663ffffffff16815260200190815260200160002060000160009054906101000a900473ffffffffffffffffffffffffffffffffffffffff1673ffffffffffffffffffffffffffffffffffffffff16146105915760016000806101000a81548160ff021916908360ff1602179055506105ad565b60008060006101000a81548160ff021916908360ff1602179055505b60008054906101000a900460ff169050919050565b6000813590506105d181610992565b92915050565b6000602082840312156105e957600080fd5b60006105f7848285016105c2565b91505092915050565b6106098161092d565b82525050565b600061061c601f8361084b565b91507f5573657220646f6573206e6f74206861766520656e6f756768206574686572006000830152602082019050919050565b600061065c60228361084b565b91507f43617264206973206e6f7420617661696c61626c6520666f722070757263686160008301527f73650000000000000000000000000000000000000000000000000000000000006020830152604082019050919050565b60006106c260148361084b565b91507f4361726420646f6573206e6f74206578697374730000000000000000000000006000830152602082019050919050565b600061070260248361084b565b91507f507572636861736520746f6b656e3a204e6f742073756666696369656e74206660008301527f756e6473000000000000000000000000000000000000000000000000000000006020830152604082019050919050565b61076481610910565b82525050565b61077381610920565b82525050565b600060208201905081810360008301526107928161060f565b9050919050565b600060208201905081810360008301526107b28161064f565b9050919050565b600060208201905081810360008301526107d2816106b5565b9050919050565b600060208201905081810360008301526107f2816106f5565b9050919050565b600060608201905061080e600083018661075b565b61081b6020830185610600565b610828604083018461075b565b949350505050565b6000602082019050610845600083018461076a565b92915050565b600082825260208201905092915050565b600061086782610906565b915061087283610906565b9250827fffffffffffffffffffffffffffffffffffffffffffffffffffffffffffffffff038211156108a7576108a6610963565b5b828201905092915050565b60006108bd82610906565b91506108c883610906565b9250828210156108db576108da610963565b5b828203905092915050565b600073ffffffffffffffffffffffffffffffffffffffff82169050919050565b6000819050919050565b600063ffffffff82169050919050565b600060ff82169050919050565b60006109388261093f565b9050919050565b600061094a82610951565b9050919050565b600061095c826108e6565b9050919050565b7f4e487b7100000000000000000000000000000000000000000000000000000000600052601160045260246000fd5b61099b81610910565b81146109a657600080fd5b5056fea2646970667358221220b6c270a551cbc2637435d4168d382486f18cd8336e242f4dad7f27539726d98a64736f6c63430008000033",
  "immutableReferences": {},
  "source": "pragma solidity ^0.8.0;\n\n/**\n * @title PurchaseCard\n * @dev Purchase Pokemon card\n */\n \nimport './Exists.sol';\nimport './Card.sol';\n\ncontract PurchaseCard is Card, Exists{\n    \n    event cardPurchased(uint32 cardPurchasedId, address newOwner, uint32 purchasePrice);\n    \n     /**\n     * @dev purchaseCard : function to initiate trade card can only be called by sender\n     * @param _purchaseCardId : Card id to purchase\n     */\n     \n    function purchaseCard(uint32 _purchaseCardId) public payable returns(uint8){\n        require(_exists(_purchaseCardId) == 1, \"Card does not exists\");\n        require(_card[_purchaseCardId].owner == admin, \"Card is not available for purchase\");\n        require(msg.sender.balance> _card[_purchaseCardId].cardPriceInWei, \"User does not have enough ether\");\n        require(msg.value >= _card[_purchaseCardId].cardPriceInWei, \"Purchase token: Not sufficient funds\");\n        _card[_purchaseCardId].owner = payable(msg.sender);\n        _balances[msg.sender]= _balances[msg.sender]+1;\n        _balances[admin]= _balances[admin]-1;\n        emit cardPurchased(_purchaseCardId, _card[_purchaseCardId].owner, _card[_purchaseCardId].cardPriceInWei);\n        return 0;\n    }\n}",
  "sourcePath": "/Users/rogueguy/Downloads/PK/PokemonToken/PokemonToken/contracts/PurchaseCard.sol",
  "compiler": {
    "name": "solc",
    "version": "0.8.0+commit.c7dfd78e.Emscripten.clang"
  },
  "schemaVersion": "3.4.1",
  "updatedAt": "2021-06-26T17:20:59.376Z",
  "devdoc": {
    "kind": "dev",
    "methods": {
      "purchaseCard(uint32)": {
        "details": "purchaseCard : function to initiate trade card can only be called by sender",
        "params": {
          "_purchaseCardId": ": Card id to purchase"
        }
      }
    },
    "version": 1
  },
  "userdoc": {
    "kind": "user",
    "methods": {},
    "version": 1
  }
}