{
  "contractName": "SellCard",
  "abi": [
    {
      "anonymous": false,
      "inputs": [
        {
          "indexed": false,
          "internalType": "uint32",
          "name": "cardSoldId",
          "type": "uint32"
        },
        {
          "indexed": false,
          "internalType": "address",
          "name": "newOwner",
          "type": "address"
        },
        {
          "indexed": false,
          "internalType": "uint32",
          "name": "sellPrice",
          "type": "uint32"
        }
      ],
      "name": "cardSold",
      "type": "event"
    },
    {
      "inputs": [
        {
          "internalType": "uint32",
          "name": "_sellCardId",
          "type": "uint32"
        }
      ],
      "name": "sellCard",
      "outputs": [
        {
          "internalType": "uint8",
          "name": "",
          "type": "uint8"
        }
      ],
      "stateMutability": "payable",
      "type": "function"
    }
  ],
  "bytecode": "0x608060405260008060006101000a81548160ff021916908360ff16021790555034801561002b57600080fd5b506109e78061003b6000396000f3fe60806040526004361061001e5760003560e01c80633d3930cd14610023575b600080fd5b61003d6004803603810190610038919061063f565b610053565b60405161004a9190610838565b60405180910390f35b6000600161006083610562565b60ff16146100a3576040517f08c379a000000000000000000000000000000000000000000000000000000000815260040161009a906107a1565b60405180910390fd5b600360008363ffffffff1663ffffffff16815260200190815260200160002060000160199054906101000a900463ffffffff1663ffffffff16600060059054906101000a900473ffffffffffffffffffffffffffffffffffffffff1673ffffffffffffffffffffffffffffffffffffffff163111610156576040517f08c379a000000000000000000000000000000000000000000000000000000000815260040161014d906107c1565b60405180910390fd5b3373ffffffffffffffffffffffffffffffffffffffff16600360008463ffffffff1663ffffffff16815260200190815260200160002060000160009054906101000a900473ffffffffffffffffffffffffffffffffffffffff1673ffffffffffffffffffffffffffffffffffffffff1614610206576040517f08c379a00000000000000000000000000000000000000000000000000000000081526004016101fd906107e1565b60405180910390fd5b600360008363ffffffff1663ffffffff16815260200190815260200160002060000160009054906101000a900473ffffffffffffffffffffffffffffffffffffffff1673ffffffffffffffffffffffffffffffffffffffff166108fc600360008563ffffffff1663ffffffff16815260200190815260200160002060000160199054906101000a900463ffffffff1663ffffffff169081150290604051600060405180830381858888f193505050501580156102c6573d6000803e3d6000fd5b50600060059054906101000a900473ffffffffffffffffffffffffffffffffffffffff16600360008463ffffffff1663ffffffff16815260200190815260200160002060000160006101000a81548173ffffffffffffffffffffffffffffffffffffffff021916908373ffffffffffffffffffffffffffffffffffffffff1602179055506001600460003373ffffffffffffffffffffffffffffffffffffffff1673ffffffffffffffffffffffffffffffffffffffff1681526020019081526020016000205461039691906108ba565b600460003373ffffffffffffffffffffffffffffffffffffffff1673ffffffffffffffffffffffffffffffffffffffff168152602001908152602001600020819055506001600460008060059054906101000a900473ffffffffffffffffffffffffffffffffffffffff1673ffffffffffffffffffffffffffffffffffffffff1673ffffffffffffffffffffffffffffffffffffffff168152602001908152602001600020546104469190610864565b600460008060059054906101000a900473ffffffffffffffffffffffffffffffffffffffff1673ffffffffffffffffffffffffffffffffffffffff1673ffffffffffffffffffffffffffffffffffffffff168152602001908152602001600020819055507fe65ffbcae4fa0903b18f7d7b1aff3e5c09bde4322a44481b2b30969f15dd5bc782600360008563ffffffff1663ffffffff16815260200190815260200160002060000160009054906101000a900473ffffffffffffffffffffffffffffffffffffffff16600360008663ffffffff1663ffffffff16815260200190815260200160002060000160199054906101000a900463ffffffff1660405161055193929190610801565b60405180910390a160009050919050565b60008073ffffffffffffffffffffffffffffffffffffffff16600360008463ffffffff1663ffffffff16815260200190815260200160002060000160009054906101000a900473ffffffffffffffffffffffffffffffffffffffff1673ffffffffffffffffffffffffffffffffffffffff16146105f95760016000806101000a81548160ff021916908360ff160217905550610615565b60008060006101000a81548160ff021916908360ff1602179055505b60008054906101000a900460ff169050919050565b6000813590506106398161099a565b92915050565b60006020828403121561065157600080fd5b600061065f8482850161062a565b91505092915050565b61067181610935565b82525050565b6000610684601483610853565b91507f4361726420646f6573206e6f74206578697374730000000000000000000000006000830152602082019050919050565b60006106c4602f83610853565b91507f436f6e74726163742061646d696e20646f6573206e6f7420686176652073756660008301527f66696369656e742062616c616e636500000000000000000000000000000000006020830152604082019050919050565b600061072a602883610853565b91507f4f6e6c79206f776e6572206f662074686520636172642063616e2073656c6c2060008301527f74686520636172640000000000000000000000000000000000000000000000006020830152604082019050919050565b61078c81610918565b82525050565b61079b81610928565b82525050565b600060208201905081810360008301526107ba81610677565b9050919050565b600060208201905081810360008301526107da816106b7565b9050919050565b600060208201905081810360008301526107fa8161071d565b9050919050565b60006060820190506108166000830186610783565b6108236020830185610668565b6108306040830184610783565b949350505050565b600060208201905061084d6000830184610792565b92915050565b600082825260208201905092915050565b600061086f8261090e565b915061087a8361090e565b9250827fffffffffffffffffffffffffffffffffffffffffffffffffffffffffffffffff038211156108af576108ae61096b565b5b828201905092915050565b60006108c58261090e565b91506108d08361090e565b9250828210156108e3576108e261096b565b5b828203905092915050565b600073ffffffffffffffffffffffffffffffffffffffff82169050919050565b6000819050919050565b600063ffffffff82169050919050565b600060ff82169050919050565b600061094082610947565b9050919050565b600061095282610959565b9050919050565b6000610964826108ee565b9050919050565b7f4e487b7100000000000000000000000000000000000000000000000000000000600052601160045260246000fd5b6109a381610918565b81146109ae57600080fd5b5056fea2646970667358221220142a0ee65aaaa9a72bda4be8444c2ccc9dcb071e6818daeaa560cbb8ebbfc64664736f6c63430008000033",
  "immutableReferences": {},
  "source": "pragma solidity ^0.8.0;\n\n/**\n * @title SellCard\n * @dev Sell Pokemon Card\n */\n\nimport './Exists.sol';\nimport './Card.sol';\n\ncontract SellCard is Card, Exists{\n    \n    event cardSold(uint32 cardSoldId, address newOwner, uint32 sellPrice);\n    \n     /**\n     * @dev sellCard : function to sell card to contract address in exchange of ether\n     * @param _sellCardId - id of card to be sold.\n     */\n    function sellCard(uint32 _sellCardId) public payable returns(uint8){\n        require(_exists(_sellCardId) == 1, \"Card does not exists\");\n        require(admin.balance> _card[_sellCardId].cardPriceInWei,\"Contract admin does not have sufficient balance\");\n        require(_card[_sellCardId].owner == msg.sender, \"Only owner of the card can sell the card\");\n        _card[_sellCardId].owner.transfer(_card[_sellCardId].cardPriceInWei);                                           // Payment from contract to owner\n        _card[_sellCardId].owner= admin;\n        _balances[msg.sender]= _balances[msg.sender]-1;\n        _balances[admin]= _balances[admin]+1;\n        emit cardSold(_sellCardId, _card[_sellCardId].owner, _card[_sellCardId].cardPriceInWei);\n        return 0;\n    }\n}",
  "sourcePath": "/Users/rogueguy/Downloads/PK/PokemonToken/PokemonToken/contracts/SellCard.sol",
  "compiler": {
    "name": "solc",
    "version": "0.8.0+commit.c7dfd78e.Emscripten.clang"
  },
  "schemaVersion": "3.4.1",
  "updatedAt": "2021-06-26T17:20:59.381Z",
  "devdoc": {
    "kind": "dev",
    "methods": {
      "sellCard(uint32)": {
        "details": "sellCard : function to sell card to contract address in exchange of ether",
        "params": {
          "_sellCardId": "- id of card to be sold."
        }
      }
    },
    "version": 1
  },
  "userdoc": {
    "kind": "user",
    "methods": {},
    "version": 1
  }
}