{
  "contractName": "SetCardPrice",
  "abi": [
    {
      "anonymous": false,
      "inputs": [
        {
          "indexed": false,
          "internalType": "uint32",
          "name": "cardId",
          "type": "uint32"
        },
        {
          "indexed": false,
          "internalType": "uint32",
          "name": "newPrice",
          "type": "uint32"
        },
        {
          "indexed": false,
          "internalType": "address",
          "name": "priceSetBy",
          "type": "address"
        }
      ],
      "name": "cardPriceSet",
      "type": "event"
    },
    {
      "inputs": [
        {
          "internalType": "uint32",
          "name": "_cardId",
          "type": "uint32"
        },
        {
          "internalType": "uint32",
          "name": "_newPrice",
          "type": "uint32"
        }
      ],
      "name": "setCardPrice",
      "outputs": [
        {
          "internalType": "uint8",
          "name": "",
          "type": "uint8"
        }
      ],
      "stateMutability": "nonpayable",
      "type": "function"
    }
  ],
  "bytecode": "0x608060405260008060006101000a81548160ff021916908360ff16021790555034801561002b57600080fd5b506103cd8061003b6000396000f3fe608060405234801561001057600080fd5b506004361061002b5760003560e01c80631d80357914610030575b600080fd5b61004a600480360381019061004591906101df565b610060565b6040516100579190610305565b60405180910390f35b60003373ffffffffffffffffffffffffffffffffffffffff16600360008563ffffffff1663ffffffff16815260200190815260200160002060000160009054906101000a900473ffffffffffffffffffffffffffffffffffffffff1673ffffffffffffffffffffffffffffffffffffffff1614610112576040517f08c379a0000000000000000000000000000000000000000000000000000000008152600401610109906102ae565b60405180910390fd5b81600360008563ffffffff1663ffffffff16815260200190815260200160002060000160196101000a81548163ffffffff021916908363ffffffff1602179055507f72f0d433d89b1b06ffb0a6bf8b34f0a3de891492c2f83178186277a44df380be83600360008663ffffffff1663ffffffff16815260200190815260200160002060000160199054906101000a900463ffffffff16336040516101b8939291906102ce565b60405180910390a16000905092915050565b6000813590506101d981610380565b92915050565b600080604083850312156101f257600080fd5b6000610200858286016101ca565b9250506020610211858286016101ca565b9150509250929050565b61022481610331565b82525050565b6000610237602183610320565b91507f4f6e6c792063617264206f776e65722063616e2073657420746865207072696360008301527f65000000000000000000000000000000000000000000000000000000000000006020830152604082019050919050565b61029981610363565b82525050565b6102a881610373565b82525050565b600060208201905081810360008301526102c78161022a565b9050919050565b60006060820190506102e36000830186610290565b6102f06020830185610290565b6102fd604083018461021b565b949350505050565b600060208201905061031a600083018461029f565b92915050565b600082825260208201905092915050565b600061033c82610343565b9050919050565b600073ffffffffffffffffffffffffffffffffffffffff82169050919050565b600063ffffffff82169050919050565b600060ff82169050919050565b61038981610363565b811461039457600080fd5b5056fea2646970667358221220f59bb8b2cb177c647934057a5c557f45ac729928433d478309a2196ab422ed1564736f6c63430008000033",
  "immutableReferences": {},
  "source": "pragma solidity ^0.8.0;\n\n/**\n * @title SetCardPrice\n * @dev Set purchase price of Pokemon card\n */\n \nimport './Exists.sol';\nimport './Card.sol';\n\ncontract SetCardPrice is Card, Exists{\n\n    event cardPriceSet(uint32 cardId, uint32 newPrice, address priceSetBy);\n  \n     /**\n     * @dev setCardPrice : function to mint tokens with ETH\n     * @param _cardId - id of card\n     * @param _newPrice - new Price\n     */\n     \n    function setCardPrice(uint32 _cardId, uint32 _newPrice) public returns(uint8){\n        require(_card[_cardId].owner==msg.sender, \"Only card owner can set the price\");\n        _card[_cardId].cardPriceInWei = _newPrice;\n        emit cardPriceSet(_cardId, _card[_cardId].cardPriceInWei, msg.sender);\n        return 0;\n    }   \n}",
  "sourcePath": "/Users/rogueguy/Downloads/PK/PokemonToken/PokemonToken/contracts/SetCardPrice.sol",
  "compiler": {
    "name": "solc",
    "version": "0.8.0+commit.c7dfd78e.Emscripten.clang"
  },
  "schemaVersion": "3.4.1",
  "updatedAt": "2021-06-26T17:20:59.396Z",
  "devdoc": {
    "kind": "dev",
    "methods": {
      "setCardPrice(uint32,uint32)": {
        "details": "setCardPrice : function to mint tokens with ETH",
        "params": {
          "_cardId": "- id of card",
          "_newPrice": "- new Price"
        }
      }
    },
    "version": 1
  },
  "userdoc": {
    "kind": "user",
    "methods": {},
    "version": 1
  }
}