{
  "contractName": "TradeCard",
  "abi": [
    {
      "anonymous": false,
      "inputs": [
        {
          "indexed": false,
          "internalType": "uint32",
          "name": "senderCardId",
          "type": "uint32"
        },
        {
          "indexed": false,
          "internalType": "address",
          "name": "senderCardIdNewOwner",
          "type": "address"
        },
        {
          "indexed": false,
          "internalType": "uint32",
          "name": "receiverCardId",
          "type": "uint32"
        },
        {
          "indexed": false,
          "internalType": "address",
          "name": "receiverCardIdNewOwner",
          "type": "address"
        }
      ],
      "name": "cardTradedSuccessfully",
      "type": "event"
    },
    {
      "inputs": [
        {
          "internalType": "uint32",
          "name": "_card1",
          "type": "uint32"
        },
        {
          "internalType": "uint32",
          "name": "_card2",
          "type": "uint32"
        }
      ],
      "name": "getCardPriceDifference",
      "outputs": [
        {
          "internalType": "uint32",
          "name": "",
          "type": "uint32"
        }
      ],
      "stateMutability": "payable",
      "type": "function"
    },
    {
      "inputs": [
        {
          "internalType": "address payable",
          "name": "_receiver",
          "type": "address"
        },
        {
          "internalType": "uint32",
          "name": "_senderCardId",
          "type": "uint32"
        },
        {
          "internalType": "uint32",
          "name": "_receiverCardId",
          "type": "uint32"
        }
      ],
      "name": "approveTradeCardBySender",
      "outputs": [
        {
          "internalType": "uint8",
          "name": "",
          "type": "uint8"
        }
      ],
      "stateMutability": "payable",
      "type": "function"
    },
    {
      "inputs": [
        {
          "internalType": "address payable",
          "name": "_sender",
          "type": "address"
        },
        {
          "internalType": "uint32",
          "name": "_senderCardId",
          "type": "uint32"
        },
        {
          "internalType": "uint32",
          "name": "_receiverCardId",
          "type": "uint32"
        }
      ],
      "name": "approveTradeCardByReceiver",
      "outputs": [
        {
          "internalType": "uint8",
          "name": "",
          "type": "uint8"
        }
      ],
      "stateMutability": "payable",
      "type": "function"
    }
  ],
  "bytecode": "0x608060405260008060006101000a81548160ff021916908360ff16021790555034801561002b57600080fd5b506115368061003b6000396000f3fe6080604052600436106100345760003560e01c80633320e73114610039578063a7c5d5f414610069578063e322054114610099575b600080fd5b610053600480360381019061004e9190610e78565b6100c9565b60405161006091906113be565b60405180910390f35b610083600480360381019061007e9190610ec7565b61064a565b604051610090919061135e565b60405180910390f35b6100b360048036038101906100ae9190610e78565b610805565b6040516100c091906113be565b60405180910390f35b600060016100d684610d86565b60ff1614610119576040517f08c379a00000000000000000000000000000000000000000000000000000000081526004016101109061129e565b60405180910390fd5b600161012483610d86565b60ff1614610167576040517f08c379a000000000000000000000000000000000000000000000000000000000815260040161015e9061129e565b60405180910390fd5b8373ffffffffffffffffffffffffffffffffffffffff16600360008563ffffffff1663ffffffff16815260200190815260200160002060000160009054906101000a900473ffffffffffffffffffffffffffffffffffffffff1673ffffffffffffffffffffffffffffffffffffffff1614610217576040517f08c379a000000000000000000000000000000000000000000000000000000000815260040161020e9061133e565b60405180910390fd5b3373ffffffffffffffffffffffffffffffffffffffff16600360008463ffffffff1663ffffffff16815260200190815260200160002060000160009054906101000a900473ffffffffffffffffffffffffffffffffffffffff1673ffffffffffffffffffffffffffffffffffffffff16146102c7576040517f08c379a00000000000000000000000000000000000000000000000000000000081526004016102be9061131e565b60405180910390fd5b600360008363ffffffff1663ffffffff16815260200190815260200160002060000160199054906101000a900463ffffffff1663ffffffff16600360008563ffffffff1663ffffffff16815260200190815260200160002060000160199054906101000a900463ffffffff1663ffffffff16111561062357610349828461064a565b600560046101000a81548163ffffffff021916908363ffffffff160217905550600560049054906101000a900463ffffffff1663ffffffff163410156103c4576040517f08c379a00000000000000000000000000000000000000000000000000000000081526004016103bb906112fe565b60405180910390fd5b60011515600560089054906101000a900460ff16151514156105c7578373ffffffffffffffffffffffffffffffffffffffff166108fc600560049054906101000a900463ffffffff1663ffffffff169081150290604051600060405180830381858888f1935050505015801561043e573d6000803e3d6000fd5b5083600360008463ffffffff1663ffffffff16815260200190815260200160002060000160006101000a81548173ffffffffffffffffffffffffffffffffffffffff021916908373ffffffffffffffffffffffffffffffffffffffff16021790555033600360008563ffffffff1663ffffffff16815260200190815260200160002060000160006101000a81548173ffffffffffffffffffffffffffffffffffffffff021916908373ffffffffffffffffffffffffffffffffffffffff1602179055507f23f47798f446143d4702e9c0ba00cbadbd900304063d8d9ca2e76b192eb4027e83600360008663ffffffff1663ffffffff16815260200190815260200160002060000160009054906101000a900473ffffffffffffffffffffffffffffffffffffffff1684600360008763ffffffff1663ffffffff16815260200190815260200160002060000160009054906101000a900473ffffffffffffffffffffffffffffffffffffffff166040516105ba9493929190611379565b60405180910390a161061e565b60011515600560099054906101000a900460ff1615151461061d576040517f08c379a0000000000000000000000000000000000000000000000000000000008152600401610614906112de565b60405180910390fd5b5b61063f565b6001600560096101000a81548160ff0219169083151502179055505b600090509392505050565b6000600360008363ffffffff1663ffffffff16815260200190815260200160002060000160199054906101000a900463ffffffff1663ffffffff16600360008563ffffffff1663ffffffff16815260200190815260200160002060000160199054906101000a900463ffffffff1663ffffffff16111561075957600360008363ffffffff1663ffffffff16815260200190815260200160002060000160199054906101000a900463ffffffff16600360008563ffffffff1663ffffffff16815260200190815260200160002060000160199054906101000a900463ffffffff1661073491906113ea565b600560006101000a81548163ffffffff021916908363ffffffff1602179055506107ea565b600360008463ffffffff1663ffffffff16815260200190815260200160002060000160199054906101000a900463ffffffff16600360008463ffffffff1663ffffffff16815260200190815260200160002060000160199054906101000a900463ffffffff166107c991906113ea565b600560006101000a81548163ffffffff021916908363ffffffff1602179055505b600560009054906101000a900463ffffffff16905092915050565b6000600161081284610d86565b60ff1614610855576040517f08c379a000000000000000000000000000000000000000000000000000000000815260040161084c9061129e565b60405180910390fd5b600161086083610d86565b60ff16146108a3576040517f08c379a000000000000000000000000000000000000000000000000000000000815260040161089a9061129e565b60405180910390fd5b3373ffffffffffffffffffffffffffffffffffffffff16600360008563ffffffff1663ffffffff16815260200190815260200160002060000160009054906101000a900473ffffffffffffffffffffffffffffffffffffffff1673ffffffffffffffffffffffffffffffffffffffff1614610953576040517f08c379a000000000000000000000000000000000000000000000000000000000815260040161094a9061133e565b60405180910390fd5b8373ffffffffffffffffffffffffffffffffffffffff16600360008463ffffffff1663ffffffff16815260200190815260200160002060000160009054906101000a900473ffffffffffffffffffffffffffffffffffffffff1673ffffffffffffffffffffffffffffffffffffffff1614610a03576040517f08c379a00000000000000000000000000000000000000000000000000000000081526004016109fa9061131e565b60405180910390fd5b600360008463ffffffff1663ffffffff16815260200190815260200160002060000160199054906101000a900463ffffffff1663ffffffff16600360008463ffffffff1663ffffffff16815260200190815260200160002060000160199054906101000a900463ffffffff1663ffffffff161115610d5f57610a85828461064a565b600560046101000a81548163ffffffff021916908363ffffffff160217905550600560049054906101000a900463ffffffff1663ffffffff16341015610b00576040517f08c379a0000000000000000000000000000000000000000000000000000000008152600401610af7906112be565b60405180910390fd5b60011515600560099054906101000a900460ff1615151415610d03578373ffffffffffffffffffffffffffffffffffffffff166108fc600560049054906101000a900463ffffffff1663ffffffff169081150290604051600060405180830381858888f19350505050158015610b7a573d6000803e3d6000fd5b5033600360008463ffffffff1663ffffffff16815260200190815260200160002060000160006101000a81548173ffffffffffffffffffffffffffffffffffffffff021916908373ffffffffffffffffffffffffffffffffffffffff16021790555083600360008563ffffffff1663ffffffff16815260200190815260200160002060000160006101000a81548173ffffffffffffffffffffffffffffffffffffffff021916908373ffffffffffffffffffffffffffffffffffffffff1602179055507f23f47798f446143d4702e9c0ba00cbadbd900304063d8d9ca2e76b192eb4027e83600360008663ffffffff1663ffffffff16815260200190815260200160002060000160009054906101000a900473ffffffffffffffffffffffffffffffffffffffff1684600360008763ffffffff1663ffffffff16815260200190815260200160002060000160009054906101000a900473ffffffffffffffffffffffffffffffffffffffff16604051610cf69493929190611379565b60405180910390a1610d5a565b60011515600560099054906101000a900460ff16151514610d59576040517f08c379a0000000000000000000000000000000000000000000000000000000008152600401610d50906112de565b60405180910390fd5b5b610d7b565b6001600560086101000a81548160ff0219169083151502179055505b600090509392505050565b60008073ffffffffffffffffffffffffffffffffffffffff16600360008463ffffffff1663ffffffff16815260200190815260200160002060000160009054906101000a900473ffffffffffffffffffffffffffffffffffffffff1673ffffffffffffffffffffffffffffffffffffffff1614610e1d5760016000806101000a81548160ff021916908360ff160217905550610e39565b60008060006101000a81548160ff021916908360ff1602179055505b60008054906101000a900460ff169050919050565b600081359050610e5d816114d2565b92915050565b600081359050610e72816114e9565b92915050565b600080600060608486031215610e8d57600080fd5b6000610e9b86828701610e4e565b9350506020610eac86828701610e63565b9250506040610ebd86828701610e63565b9150509250925092565b60008060408385031215610eda57600080fd5b6000610ee885828601610e63565b9250506020610ef985828601610e63565b9150509250929050565b610f0c8161146d565b82525050565b6000610f1f6014836113d9565b91507f4361726420646f6573206e6f74206578697374730000000000000000000000006000830152602082019050919050565b6000610f5f609c836113d9565b91507f53656e646572206e6565647320746f20706179206164646974696f6e616c206360008301527f6f7374206f66206361726420776974682074686973207472616e73616374696f60208301527f6e2e20506c6561736520636865636b207468652070726963652064696666657260408301527f656e636520616e642072756e20746865207472616e73616374696f6e2061676160608301527f696e20776974682073756666696369656e74206d73672e76616c756500000000608083015260a082019050919050565b60006110376066836113d9565b91507f466f722062616c616e6365207472616e736665722066726f6d2073656e64657260008301527f2c2074726164652073686f756c6420626520666972737420617070726f76656460208301527f20627920726563656976657220616e64207468656e2063616c6c65642062792060408301527f73656e64657200000000000000000000000000000000000000000000000000006060830152608082019050919050565b60006110e9609e836113d9565b91507f5265636569766572206e6565647320746f20706179206164646974696f6e616c60008301527f20636f7374206f66206361726420776974682074686973207472616e7361637460208301527f696f6e2e20506c6561736520636865636b20746865207072696365206469666660408301527f6572656e636520616e642072756e20746865207472616e73616374696f6e206160608301527f6761696e20776974682073756666696369656e74206d73672e76616c75650000608083015260a082019050919050565b60006111c16033836113d9565b91507f436172642072657175657374656420746f2074726164652073686f756c64206260008301527f65206f776e6564206279207265636569766572000000000000000000000000006020830152604082019050919050565b60006112276030836113d9565b91507f436172642073686f756c64206265206f776e656420627920747261646520726560008301527f71756573746f7220746f207472616465000000000000000000000000000000006020830152604082019050919050565b61128981611450565b82525050565b61129881611460565b82525050565b600060208201905081810360008301526112b781610f12565b9050919050565b600060208201905081810360008301526112d781610f52565b9050919050565b600060208201905081810360008301526112f78161102a565b9050919050565b60006020820190508181036000830152611317816110dc565b9050919050565b60006020820190508181036000830152611337816111b4565b9050919050565b600060208201905081810360008301526113578161121a565b9050919050565b60006020820190506113736000830184611280565b92915050565b600060808201905061138e6000830187611280565b61139b6020830186610f03565b6113a86040830185611280565b6113b56060830184610f03565b95945050505050565b60006020820190506113d3600083018461128f565b92915050565b600082825260208201905092915050565b60006113f582611450565b915061140083611450565b925082821015611413576114126114a3565b5b828203905092915050565b600061142982611430565b9050919050565b600073ffffffffffffffffffffffffffffffffffffffff82169050919050565b600063ffffffff82169050919050565b600060ff82169050919050565b60006114788261147f565b9050919050565b600061148a82611491565b9050919050565b600061149c82611430565b9050919050565b7f4e487b7100000000000000000000000000000000000000000000000000000000600052601160045260246000fd5b6114db8161141e565b81146114e657600080fd5b50565b6114f281611450565b81146114fd57600080fd5b5056fea2646970667358221220f6f7f41b5c72924a72046fc4596b63e08963eb262369b0e1b7f30c2330ed257564736f6c63430008000033",
  "immutableReferences": {},
  "source": "pragma solidity ^0.8.0;\n\nimport './Exists.sol';\nimport './Card.sol';\nimport './PriceDifference.sol';\n\ncontract TradeCard is Card, Exists, PriceDifference{\n    \n    uint32 pd;\n    \n    bool tradeApprovalSender;\n    \n    bool tradeApprovalReceiver;\n    \n    event cardTradedSuccessfully(uint32 senderCardId, address senderCardIdNewOwner, uint32 receiverCardId, address receiverCardIdNewOwner);\n    \n    /**\n     * @dev approveTradeCardBySender : function to initiate trade card can only be called by sender\n     * @param _receiver : Receiver or second party\n     * @param _senderCardId : Sender's card id\n     * @param _receiverCardId : Receiver's card id\n     */\n    \n    function approveTradeCardBySender(address payable _receiver, uint32 _senderCardId, uint32 _receiverCardId) public payable returns (uint8) {\n        require(_exists(_senderCardId) == 1, \"Card does not exists\");\n        require(_exists(_receiverCardId) == 1, \"Card does not exists\");\n        require(_card[_senderCardId].owner== msg.sender, \"Card should be owned by trade requestor to trade\");\n        require(_card[_receiverCardId].owner== _receiver, \"Card requested to trade should be owned by receiver\");\n        if(_card[_receiverCardId].cardPriceInWei > _card[_senderCardId].cardPriceInWei){\n            pd= getCardPriceDifference(_receiverCardId, _senderCardId);\n            require(msg.value >= pd, \"Sender needs to pay additional cost of card with this transaction. Please check the price difference and run the transaction again with sufficient msg.value\");\n            if(tradeApprovalReceiver== true){\n                _receiver.transfer(pd);\n                _card[_receiverCardId].owner= payable(msg.sender);\n                _card[_senderCardId].owner=  payable (_receiver);\n                emit cardTradedSuccessfully(_senderCardId, _card[_senderCardId].owner, _receiverCardId, _card[_receiverCardId].owner);\n            }\n            else{\n                 require(tradeApprovalReceiver == true, \"For balance transfer from sender, trade should be first approved by receiver and then called by sender\");\n            }\n        }\n        else{\n            tradeApprovalSender=true;\n            }\n        return 0;\n    }\n    \n    /**\n     * @dev approveTradeCardByReceiver : function to initiate trade card can only be called by sender\n     * @param _sender : Receiver or second party\n     * @param _senderCardId : Sender's card id\n     * @param _receiverCardId : Receiver's card id\n     */\n    \n    function approveTradeCardByReceiver(address payable _sender, uint32 _senderCardId, uint32 _receiverCardId) public payable returns(uint8){\n        require(_exists(_senderCardId) == 1, \"Card does not exists\");\n        require(_exists(_receiverCardId) == 1, \"Card does not exists\");\n        require(_card[_senderCardId].owner== _sender, \"Card should be owned by trade requestor to trade\");\n        require(_card[_receiverCardId].owner== msg.sender, \"Card requested to trade should be owned by receiver\");\n        if(_card[_senderCardId].cardPriceInWei > _card[_receiverCardId].cardPriceInWei){\n            pd= getCardPriceDifference(_receiverCardId, _senderCardId);\n            require(msg.value >= pd, \"Receiver needs to pay additional cost of card with this transaction. Please check the price difference and run the transaction again with sufficient msg.value\");\n            if(tradeApprovalSender== true){\n                _sender.transfer(pd);\n                _card[_receiverCardId].owner= payable(_sender);\n                _card[_senderCardId].owner=  payable (msg.sender);\n                emit cardTradedSuccessfully(_senderCardId, _card[_senderCardId].owner, _receiverCardId, _card[_receiverCardId].owner);\n            }\n            else{\n                 require(tradeApprovalReceiver == true, \"For balance transfer from sender, trade should be first approved by receiver and then called by sender\");\n            }\n        }\n        else{\n            tradeApprovalReceiver=true;\n            }\n        return 0;\n    }\n}    \n",
  "sourcePath": "/Users/rogueguy/Downloads/PK/PokemonToken/PokemonToken/contracts/TradeCard.sol",
  "compiler": {
    "name": "solc",
    "version": "0.8.0+commit.c7dfd78e.Emscripten.clang"
  },
  "schemaVersion": "3.4.1",
  "updatedAt": "2021-06-26T17:20:59.399Z",
  "devdoc": {
    "kind": "dev",
    "methods": {
      "approveTradeCardByReceiver(address,uint32,uint32)": {
        "details": "approveTradeCardByReceiver : function to initiate trade card can only be called by sender",
        "params": {
          "_receiverCardId": ": Receiver's card id",
          "_sender": ": Receiver or second party",
          "_senderCardId": ": Sender's card id"
        }
      },
      "approveTradeCardBySender(address,uint32,uint32)": {
        "details": "approveTradeCardBySender : function to initiate trade card can only be called by sender",
        "params": {
          "_receiver": ": Receiver or second party",
          "_receiverCardId": ": Receiver's card id",
          "_senderCardId": ": Sender's card id"
        }
      },
      "getCardPriceDifference(uint32,uint32)": {
        "details": "function to initiate trade card can only be called by sender",
        "params": {
          "_card1": ": First card id",
          "_card2": ": Second card id"
        }
      }
    },
    "version": 1
  },
  "userdoc": {
    "kind": "user",
    "methods": {},
    "version": 1
  }
}