{
  "contractName": "TransferCard",
  "abi": [
    {
      "anonymous": false,
      "inputs": [
        {
          "indexed": false,
          "internalType": "uint32",
          "name": "cardTransferredId",
          "type": "uint32"
        },
        {
          "indexed": false,
          "internalType": "address",
          "name": "newOwner",
          "type": "address"
        }
      ],
      "name": "cardTransferred",
      "type": "event"
    },
    {
      "inputs": [
        {
          "internalType": "uint32",
          "name": "_cardId",
          "type": "uint32"
        },
        {
          "internalType": "address",
          "name": "_to",
          "type": "address"
        }
      ],
      "name": "transferCard",
      "outputs": [
        {
          "internalType": "uint8",
          "name": "",
          "type": "uint8"
        }
      ],
      "stateMutability": "nonpayable",
      "type": "function"
    }
  ],
  "bytecode": "0x608060405260008060006101000a81548160ff021916908360ff16021790555034801561002b57600080fd5b506108178061003b6000396000f3fe608060405234801561001057600080fd5b506004361061002b5760003560e01c806325e5de3714610030575b600080fd5b61004a60048036038101906100459190610441565b610060565b604051610057919061063f565b60405180910390f35b60003373ffffffffffffffffffffffffffffffffffffffff16600360008563ffffffff1663ffffffff16815260200190815260200160002060000160009054906101000a900473ffffffffffffffffffffffffffffffffffffffff1673ffffffffffffffffffffffffffffffffffffffff1614610112576040517f08c379a0000000000000000000000000000000000000000000000000000000008152600401610109906105b6565b60405180910390fd5b600060059054906101000a900473ffffffffffffffffffffffffffffffffffffffff1673ffffffffffffffffffffffffffffffffffffffff168273ffffffffffffffffffffffffffffffffffffffff1614156101a3576040517f08c379a000000000000000000000000000000000000000000000000000000000815260040161019a906105d6565b60405180910390fd5b600073ffffffffffffffffffffffffffffffffffffffff168273ffffffffffffffffffffffffffffffffffffffff161415610213576040517f08c379a000000000000000000000000000000000000000000000000000000000815260040161020a906105f6565b60405180910390fd5b81600360008563ffffffff1663ffffffff16815260200190815260200160002060000160006101000a81548173ffffffffffffffffffffffffffffffffffffffff021916908373ffffffffffffffffffffffffffffffffffffffff1602179055506001600460003373ffffffffffffffffffffffffffffffffffffffff1673ffffffffffffffffffffffffffffffffffffffff168152602001908152602001600020546102c091906106c1565b600460003373ffffffffffffffffffffffffffffffffffffffff1673ffffffffffffffffffffffffffffffffffffffff168152602001908152602001600020819055506001600460008473ffffffffffffffffffffffffffffffffffffffff1673ffffffffffffffffffffffffffffffffffffffff1681526020019081526020016000205461034f919061066b565b600460008473ffffffffffffffffffffffffffffffffffffffff1673ffffffffffffffffffffffffffffffffffffffff168152602001908152602001600020819055507f5b570d60af4991f468d06183ffb08a27c444f27b774e1b384cf94067b0775c2483600360008663ffffffff1663ffffffff16815260200190815260200160002060000160009054906101000a900473ffffffffffffffffffffffffffffffffffffffff16604051610405929190610616565b60405180910390a16000905092915050565b600081359050610426816107b3565b92915050565b60008135905061043b816107ca565b92915050565b6000806040838503121561045457600080fd5b60006104628582860161042c565b925050602061047385828601610417565b9150509250929050565b6104868161074e565b82525050565b600061049960298361065a565b91507f436172642063616e206f6e6c79206265207472616e736665727265642062792060008301527f746865206f776e657200000000000000000000000000000000000000000000006020830152604082019050919050565b60006104ff603c8361065a565b91507f43617264732073686f756c6420626520736f6c6420616e64206e6f742074726160008301527f6e7366657272656420746f20436f6e74726163742061646472657373000000006020830152604082019050919050565b600061056560158361065a565b91507f546f206164647265737320697320696e76616c696400000000000000000000006000830152602082019050919050565b6105a181610731565b82525050565b6105b081610741565b82525050565b600060208201905081810360008301526105cf8161048c565b9050919050565b600060208201905081810360008301526105ef816104f2565b9050919050565b6000602082019050818103600083015261060f81610558565b9050919050565b600060408201905061062b6000830185610598565b610638602083018461047d565b9392505050565b600060208201905061065460008301846105a7565b92915050565b600082825260208201905092915050565b600061067682610727565b915061068183610727565b9250827fffffffffffffffffffffffffffffffffffffffffffffffffffffffffffffffff038211156106b6576106b5610784565b5b828201905092915050565b60006106cc82610727565b91506106d783610727565b9250828210156106ea576106e9610784565b5b828203905092915050565b600061070082610707565b9050919050565b600073ffffffffffffffffffffffffffffffffffffffff82169050919050565b6000819050919050565b600063ffffffff82169050919050565b600060ff82169050919050565b600061075982610760565b9050919050565b600061076b82610772565b9050919050565b600061077d82610707565b9050919050565b7f4e487b7100000000000000000000000000000000000000000000000000000000600052601160045260246000fd5b6107bc816106f5565b81146107c757600080fd5b50565b6107d381610731565b81146107de57600080fd5b5056fea26469706673582212207a6d4726b08f7232528531d3ca66c4cc1f3ab2cddce9dcb2af54ed25f4fe18af64736f6c63430008000033",
  "immutableReferences": {},
  "source": "pragma solidity ^0.8.0;\n\n/**\n * @title TransferCard\n * @dev Transfer Pokemon card\n */\n \nimport './Exists.sol';\nimport './Card.sol';\n\ncontract TransferCard is Card, Exists{\n    \n    event cardTransferred(uint32 cardTransferredId, address newOwner);\n    \n    /**\n     * @dev transferCard : function to initiate trade card can only be called by sender\n     * @param _cardId : Current card id\n     * @param _to : receiver's address\n     */\n    function transferCard(uint32 _cardId, address _to) public returns(uint8){\n        require(_card[_cardId].owner == msg.sender, \"Card can only be transferred by the owner\");\n        require(_to != admin, \"Cards should be sold and not transferred to Contract address\");\n        require(_to != address(0), \"To address is invalid\");\n        _card[_cardId].owner = payable (_to);\n        _balances[msg.sender]= _balances[msg.sender]-1;\n        _balances[_to]= _balances[_to]+1;\n        emit cardTransferred(_cardId, _card[_cardId].owner);\n        return 0;\n    }\n}",
  "sourcePath": "/Users/rogueguy/Downloads/PK/PokemonToken/PokemonToken/contracts/TransferCard.sol",
  "compiler": {
    "name": "solc",
    "version": "0.8.0+commit.c7dfd78e.Emscripten.clang"
  },
  "schemaVersion": "3.4.1",
  "updatedAt": "2021-06-26T17:20:59.426Z",
  "devdoc": {
    "kind": "dev",
    "methods": {
      "transferCard(uint32,address)": {
        "details": "transferCard : function to initiate trade card can only be called by sender",
        "params": {
          "_cardId": ": Current card id",
          "_to": ": receiver's address"
        }
      }
    },
    "version": 1
  },
  "userdoc": {
    "kind": "user",
    "methods": {},
    "version": 1
  }
}